{
  "contractName": "InsertionSorter",
  "abi": [
    {
      "constant": false,
      "inputs": [
        {
          "name": "data",
          "type": "uint256[] storage"
        }
      ],
      "name": "sort",
      "outputs": [],
      "payable": false,
      "stateMutability": "nonpayable",
      "type": "function"
    }
  ],
  "bytecode": "0x6060604052341561000f57600080fd5b61020b8061001e6000396000f3006060604052600436106100405763ffffffff7c0100000000000000000000000000000000000000000000000000000000600035041663d6db1bb48114610045575b600080fd5b610050600435610052565b005b600061005c6101cd565b8254915060008080846040518059106100725750595b90808252806020026020018201604052509350600092505b848310156100cd5785838154811015156100a057fe5b9060005260206000209001548484815181106100b857fe5b6020908102909101015260019092019161008a565b600192505b835183101561017d578383815181106100e757fe5b9060200190602002015191508290505b60008111801561011e57508184600183038151811061011257fe5b90602001906020020151115b1561015b5783600182038151811061013257fe5b9060200190602002015184828151811061014857fe5b60209081029091010152600019016100f7565b8184828151811061016857fe5b602090810290910101526001909201916100d2565b600092505b848310156101c55783838151811061019657fe5b9060200190602002015186848154811015156101ae57fe5b600091825260209091200155600190920191610182565b505050505050565b602060405190810160405260008152905600a165627a7a72305820da46f2fcb297bc807a1d3110b076a3a42b7cba17c1833b461d7fa854d42d31980029",
  "source": "pragma solidity ^0.4.11;\r\n\r\nlibrary InsertionSorter {\r\n\r\n\r\n  function sort(uint[] storage data) {\r\n\r\n    uint n = data.length;\r\n    uint[] memory arr = new uint[](n);\r\n    uint i;\r\n\r\n    for(i=0; i<n; i++) {\r\n      arr[i] = data[i];\r\n    }\r\n\r\n    uint key;\r\n    uint j;\r\n\r\n    for(i = 1; i < arr.length; i++ ) {\r\n      key = arr[i];\r\n\r\n      for(j = i; j > 0 && arr[j-1] > key; j-- ) {\r\n        arr[j] = arr[j-1];\r\n      }\r\n\r\n      arr[j] = key;\r\n    }\r\n\r\n    for(i=0; i<n; i++) {\r\n      data[i] = arr[i];\r\n    }\r\n\r\n  }\r\n\r\n}",
  "sourcePath": "C:\\OpenServer\\domains\\smart_contracts\\sort\\contracts\\InsertionSorter.sol",
  "compiler": {
    "name": "solc",
    "version": "0.4.18+commit.9cf6e910.Emscripten.clang"
  },
  "schemaVersion": "1.0.1",
  "updatedAt": "2017-11-14T13:14:43.396Z"
}