{
  "contractName": "QuickSort",
  "abi": [
    {
      "constant": false,
      "inputs": [
        {
          "name": "elementCount",
          "type": "uint256"
        }
      ],
      "name": "generate",
      "outputs": [],
      "payable": false,
      "stateMutability": "nonpayable",
      "type": "function"
    },
    {
      "constant": false,
      "inputs": [],
      "name": "sort",
      "outputs": [],
      "payable": false,
      "stateMutability": "nonpayable",
      "type": "function"
    },
    {
      "constant": true,
      "inputs": [
        {
          "name": "",
          "type": "uint256"
        }
      ],
      "name": "data",
      "outputs": [
        {
          "name": "",
          "type": "uint256"
        }
      ],
      "payable": false,
      "stateMutability": "view",
      "type": "function"
    }
  ],
  "bytecode": "0x6060604052341561000f57600080fd5b6102308061001e6000396000f3006060604052600436106100565763ffffffff7c01000000000000000000000000000000000000000000000000000000006000350416634a7dd523811461005b5780638cdc86a614610073578063f0ba844014610086575b600080fd5b341561006657600080fd5b6100716004356100ae565b005b341561007e57600080fd5b61007161011b565b341561009157600080fd5b61009c6004356101a5565b60405190815260200160405180910390f35b6000808083116100bd57600080fd5b5060005b828160ff161015610116578060050260ff1660258260ff1642018115156100e457fe5b060160ff169150600080548060010182816100ff91906101c4565b5060009182526020909120018290556001016100c1565b505050565b6000541515610129576101a3565b73__QuickSorter___________________________63d6db1bb460006040517c010000000000000000000000000000000000000000000000000000000063ffffffff8416028152600481019190915260240160006040518083038186803b151561019257600080fd5b6102c65a03f4151561011657600080fd5b565b60008054829081106101b357fe5b600091825260209091200154905081565b8154818355818115116101165760008381526020902061011691810190830161020191905b808211156101fd57600081556001016101e9565b5090565b905600a165627a7a7230582075352cd3d77efa8004d022eab1c80715f86ccb5945f8c7c8da2405b1b1a675500029",
  "source": "pragma solidity ^0.4.11;\r\n\r\nimport './QuickSorter.sol';\r\n\r\ncontract QuickSort {\r\n\tusing QuickSorter for uint[];\r\n\r\n    uint[] public data;\r\n\r\n    function generate(uint elementCount) {\r\n        require(elementCount > 0);\r\n        uint wheelResult;\r\n        // data.length = elementCount;\r\n        for (var i = 0; i < elementCount; i++) {\r\n            wheelResult = uint8(uint256(block.timestamp+i)%37+i*5);\r\n            data.push(wheelResult);\r\n        }\r\n    }\r\n    \r\n    function sort() {\r\n        if (data.length == 0)\r\n            return;\r\n        data.sort();\r\n    }\r\n}\r\n",
  "sourcePath": "C:\\OpenServer\\domains\\smart_contracts\\sort\\contracts\\QuickSort.sol",
  "compiler": {
    "name": "solc",
    "version": "0.4.18+commit.9cf6e910.Emscripten.clang"
  },
  "schemaVersion": "1.0.1",
  "updatedAt": "2017-11-14T13:14:43.418Z"
}