{
  "contractName": "QuickSorter",
  "abi": [
    {
      "constant": false,
      "inputs": [
        {
          "name": "data",
          "type": "uint256[] storage"
        }
      ],
      "name": "sort",
      "outputs": [],
      "payable": false,
      "stateMutability": "nonpayable",
      "type": "function"
    }
  ],
  "bytecode": "0x6060604052341561000f57600080fd5b6103b78061001e6000396000f3006060604052600436106100405763ffffffff7c0100000000000000000000000000000000000000000000000000000000600035041663d6db1bb48114610045575b600080fd5b610050600435610052565b005b600061005c610379565b6000610066610379565b84549350600080808080808960405180591061007f5750595b90808252806020026020018201604052509850600097505b898810156100da578a888154811015156100ad57fe5b9060005260206000209001548989815181106100c557fe5b60209081029091010152600190970196610097565b896002016040518059106100eb5750595b9080825280602002602001820160405250965060019550600087878151811061011057fe5b602090810290910101526001909501946000198a0187878151811061013157fe5b602090810290910101525b60008611156103245786868151811061015157fe5b90602001906020020151945060018603955086868151811061016f57fe5b90602001906020020151935060018603955083975088858151811061019057fe5b9060200190602002015192508391505b8482101561023157828983815181106101b557fe5b9060200190602002015111610226578882815181106101d057fe5b906020019060200201518989815181106101e657fe5b906020019060200201518a8a815181106101fc57fe5b9060200190602002018b858151811061021157fe5b60209081029091010191909152526001909701965b6001909101906101a0565b88858151811061023d57fe5b9060200190602002015189898151811061025357fe5b906020019060200201518a8a8151811061026957fe5b9060200190602002018b888151811061027e57fe5b60209081029091010191909152525086600184018111156102d857856001019550838787815181106102ac57fe5b6020908102909101015260019095019460001981018787815181106102cd57fe5b602090810290910101525b8481600101101561031f5760019586019581018787815181106102f757fe5b602090810290910101526001909501948487878151811061031457fe5b602090810290910101525b61013c565b600097505b8988101561036c5788888151811061033d57fe5b906020019060200201518b8981548110151561035557fe5b600091825260209091200155600190970196610329565b5050505050505050505050565b602060405190810160405260008152905600a165627a7a72305820a088b6d8219df5f8c20bc259ea6af8a96a54a7c6aef978586a71b2e51947d80d0029",
  "source": "pragma solidity ^0.4.11;\r\n\r\nlibrary QuickSorter {\r\n\r\n  function sort(uint[] storage data) {\r\n\r\n    uint n = data.length;\r\n    uint[] memory arr = new uint[](n);\r\n    uint i;\r\n\r\n    for(i=0; i<n; i++) {\r\n      arr[i] = data[i];\r\n    }\r\n\r\n    uint[] memory stack = new uint[](n+2);\r\n\r\n    //Push initial lower and higher bound\r\n    uint top = 1;\r\n    stack[top] = 0;\r\n    top = top + 1;\r\n    stack[top] = n-1;\r\n\r\n    //Keep popping from stack while is not empty\r\n    while (top > 0) {\r\n\r\n      uint h = stack[top];\r\n      top = top - 1;\r\n      uint l = stack[top];\r\n      top = top - 1;\r\n\r\n      i = l;\r\n      uint x = arr[h];\r\n\r\n      for(uint j=l; j<h; j++){\r\n        if  (arr[j] <= x) {\r\n          //Move smaller element\r\n          (arr[i], arr[j]) = (arr[j],arr[i]);\r\n          i = i + 1;\r\n        }\r\n      }\r\n      (arr[i], arr[h]) = (arr[h],arr[i]);\r\n      uint p = i;\r\n\r\n      //Push left side to stack\r\n      if (p > l + 1) {\r\n        top = top + 1;\r\n        stack[top] = l;\r\n        top = top + 1;\r\n        stack[top] = p - 1;\r\n      }\r\n\r\n      //Push right side to stack\r\n      if (p+1 < h) {\r\n        top = top + 1;\r\n        stack[top] = p + 1;\r\n        top = top + 1;\r\n        stack[top] = h;\r\n      }\r\n    }\r\n\r\n    for(i=0; i<n; i++) {\r\n      data[i] = arr[i];\r\n    }\r\n  }\r\n\r\n}",
  "sourcePath": "C:\\OpenServer\\domains\\smart_contracts\\sort\\contracts\\QuickSorter.sol",
  "compiler": {
    "name": "solc",
    "version": "0.4.18+commit.9cf6e910.Emscripten.clang"
  },
  "schemaVersion": "1.0.1",
  "updatedAt": "2017-11-14T13:14:43.431Z"
}