{
  "contractName": "Crowdsale",
  "abi": [
    {
      "constant": true,
      "inputs": [],
      "name": "rate",
      "outputs": [
        {
          "name": "",
          "type": "uint256"
        }
      ],
      "payable": false,
      "stateMutability": "view",
      "type": "function"
    },
    {
      "constant": true,
      "inputs": [],
      "name": "endTime",
      "outputs": [
        {
          "name": "",
          "type": "uint256"
        }
      ],
      "payable": false,
      "stateMutability": "view",
      "type": "function"
    },
    {
      "constant": true,
      "inputs": [],
      "name": "weiRaised",
      "outputs": [
        {
          "name": "",
          "type": "uint256"
        }
      ],
      "payable": false,
      "stateMutability": "view",
      "type": "function"
    },
    {
      "constant": true,
      "inputs": [],
      "name": "hasStarted",
      "outputs": [
        {
          "name": "",
          "type": "bool"
        }
      ],
      "payable": false,
      "stateMutability": "view",
      "type": "function"
    },
    {
      "constant": true,
      "inputs": [],
      "name": "wallet",
      "outputs": [
        {
          "name": "",
          "type": "address"
        }
      ],
      "payable": false,
      "stateMutability": "view",
      "type": "function"
    },
    {
      "constant": true,
      "inputs": [],
      "name": "startTime",
      "outputs": [
        {
          "name": "",
          "type": "uint256"
        }
      ],
      "payable": false,
      "stateMutability": "view",
      "type": "function"
    },
    {
      "constant": true,
      "inputs": [],
      "name": "hasEnded",
      "outputs": [
        {
          "name": "",
          "type": "bool"
        }
      ],
      "payable": false,
      "stateMutability": "view",
      "type": "function"
    },
    {
      "constant": true,
      "inputs": [],
      "name": "hardCap",
      "outputs": [
        {
          "name": "",
          "type": "uint256"
        }
      ],
      "payable": false,
      "stateMutability": "view",
      "type": "function"
    },
    {
      "constant": true,
      "inputs": [],
      "name": "token",
      "outputs": [
        {
          "name": "",
          "type": "address"
        }
      ],
      "payable": false,
      "stateMutability": "view",
      "type": "function"
    },
    {
      "inputs": [
        {
          "name": "_startTime",
          "type": "uint256"
        },
        {
          "name": "_endTime",
          "type": "uint256"
        },
        {
          "name": "_rate",
          "type": "uint256"
        },
        {
          "name": "_hardCap",
          "type": "uint256"
        },
        {
          "name": "_wallet",
          "type": "address"
        },
        {
          "name": "_token",
          "type": "address"
        }
      ],
      "payable": false,
      "stateMutability": "nonpayable",
      "type": "constructor"
    },
    {
      "payable": true,
      "stateMutability": "payable",
      "type": "fallback"
    },
    {
      "anonymous": false,
      "inputs": [
        {
          "indexed": true,
          "name": "purchaser",
          "type": "address"
        },
        {
          "indexed": true,
          "name": "beneficiary",
          "type": "address"
        },
        {
          "indexed": false,
          "name": "value",
          "type": "uint256"
        },
        {
          "indexed": false,
          "name": "amount",
          "type": "uint256"
        }
      ],
      "name": "TokenPurchase",
      "type": "event"
    }
  ],
  "bytecode": "0x6060604052341561000f57600080fd5b60405160c0806106708339810160405280805191906020018051919060200180519190602001805191906020018051919060200180519150508585101561005557600080fd5b6000841161006257600080fd5b600160a060020a038216151561007757600080fd5b60008054600160a060020a03928316600160a060020a031991821617909155600196909655600294909455600492909255600655600380549190921692169190911790556105a6806100ca6000396000f30060606040526004361061007f5763ffffffff60e060020a6000350416632c4e722e811461008b5780633197cbb6146100b05780634042b66f146100c357806344691f7e146100d6578063521eb273146100fd57806378e979251461012c578063ecb70fb71461013f578063fb86a40414610152578063fc0c546a14610165575b6100893334610178565b005b341561009657600080fd5b61009e6103af565b60405190815260200160405180910390f35b34156100bb57600080fd5b61009e6103b5565b34156100ce57600080fd5b61009e6103bb565b34156100e157600080fd5b6100e96103c1565b604051901515815260200160405180910390f35b341561010857600080fd5b6101106103ca565b604051600160a060020a03909116815260200160405180910390f35b341561013757600080fd5b61009e6103d9565b341561014a57600080fd5b6100e96103df565b341561015d57600080fd5b61009e61046c565b341561017057600080fd5b610110610472565b60008080808080600160a060020a038816151561019457600080fd5b60008054600160a060020a0316906318160ddd90604051602001526040518163ffffffff1660e060020a028152600401602060405180830381600087803b15156101dd57600080fd5b6102c65a03f115156101ee57600080fd5b505050604051805190509550610202610481565b945061020f878688610487565b151561021a57600080fd5b61022a878663ffffffff6104df16565b60065490945060009350610244858863ffffffff61050a16565b111561028c5760065461025d908763ffffffff61051916565b915061026f828663ffffffff61052b16565b9050610281818663ffffffff6104df16565b935080870392508096505b60055461029f908863ffffffff61050a16565b60055560008054600160a060020a0316906340c10f19908a9087906040516020015260405160e060020a63ffffffff8516028152600160a060020a0390921660048301526024820152604401602060405180830381600087803b151561030457600080fd5b6102c65a03f1151561031557600080fd5b50505060405180515050600160a060020a038816807f623b3804fa71d67900d064613da8f94b9617215ee90799290593e1745087ad18898760405191825260208201526040908101905180910390a3821561039b57600160a060020a03331683156108fc0284604051600060405180830381858888f19350505050151561039b57600080fd5b6103a58888610542565b5050505050505050565b60045481565b60025481565b60055481565b60015442101590565b600354600160a060020a031681565b60015481565b600060025442118061046757506004546006546104019163ffffffff61051916565b60008054600160a060020a0316906318160ddd90604051602001526040518163ffffffff1660e060020a028152600401602060405180830381600087803b151561044a57600080fd5b6102c65a03f1151561045b57600080fd5b50505060405180519050115b905090565b60065481565b600054600160a060020a031681565b60045490565b60008060008060015442101580156104a157506002544211155b60065490935087151592506104bc908763ffffffff61051916565b85111590508280156104cb5750815b80156104d45750805b979650505050505050565b60008282028315806104fb57508284828115156104f857fe5b04145b151561050357fe5b9392505050565b60008282018381101561050357fe5b60008282111561052557fe5b50900390565b600080828481151561053957fe5b04949350505050565b600354600160a060020a03163480156108fc0290604051600060405180830381858888f19350505050151561057657600080fd5b50505600a165627a7a72305820bc78b42807001be22885c99cf9a8bc5a5c847c14cd8e893dbcb1d80c8ee95ed70029",
  "source": "pragma solidity ^0.4.11;\r\n\r\nimport '../token/MintableToken.sol';\r\nimport '../math/SafeMath.sol';\r\n\r\n/**\r\n * @title Crowdsale\r\n * @dev Crowdsale is a base contract for managing a token crowdsale.\r\n * Crowdsales have a start and end timestamps, where investors can make\r\n * token purchases and the crowdsale will assign them tokens based\r\n * on a token per ETH rate. Funds collected are forwarded to a wallet\r\n * as they arrive.\r\n */\r\ncontract Crowdsale {\r\n    using SafeMath for uint256;\r\n\r\n    // The token being sold\r\n    MintableToken public token;\r\n\r\n    // start and end timestamps where investments are allowed (both inclusive)\r\n    uint256 public startTime;\r\n    uint256 public endTime;\r\n\r\n    // address where funds are collected\r\n    address public wallet;\r\n\r\n    // how many token units a buyer gets per wei\r\n    uint256 public rate;\r\n\r\n    // amount of raised money in wei\r\n    uint256 public weiRaised;\r\n\r\n    /**\r\n     * @dev Amount of already sold tokens.\r\n     */\r\n    // uint public soldTokens;\r\n\r\n    /**\r\n     * @dev Maximum amount of tokens to mint.\r\n     */\r\n    uint public hardCap;\r\n\r\n    /**\r\n     * event for token purchase logging\r\n     * @param purchaser who paid for the tokens\r\n     * @param beneficiary who got the tokens\r\n     * @param value weis paid for purchase\r\n     * @param amount amount of tokens purchased\r\n     */\r\n    event TokenPurchase(address indexed purchaser, address indexed beneficiary, uint256 value, uint256 amount);\r\n\r\n    function Crowdsale(uint256 _startTime, uint256 _endTime, uint256 _rate, uint _hardCap, address _wallet, address _token) {\r\n        // require(_startTime >= now);\r\n        require(_endTime >= _startTime);\r\n        require(_rate > 0);\r\n        require(_wallet != 0x0);\r\n        // require(_hardCap > _rate);\r\n\r\n        // token = createTokenContract();\r\n        token = MintableToken(_token);\r\n\r\n        startTime = _startTime;\r\n        endTime = _endTime;\r\n        rate = _rate;\r\n        hardCap = _hardCap;\r\n        wallet = _wallet;\r\n    }\r\n\r\n    // creates the token to be sold.\r\n    // override this method to have crowdsale of a specific mintable token.\r\n    // function createTokenContract() internal returns (MintableToken) {\r\n    //     return new MintableToken();\r\n    // }\r\n\r\n    // fallback function can be used to buy tokens\r\n    function () payable {\r\n        buyTokens(msg.sender, msg.value);\r\n    }\r\n\r\n    /**\r\n     * @dev this method might be overridden for implementing any sale logic.\r\n     * @return Actual rate.\r\n     */\r\n    function getRate() internal constant returns (uint) { //uint amountWei\r\n        return rate;\r\n    }\r\n\r\n    // low level token purchase function\r\n    function buyTokens(address beneficiary, uint amountWei) internal { //public payable\r\n        require(beneficiary != 0x0);\r\n\r\n        // total minted tokens\r\n        uint totalSupply = token.totalSupply();\r\n\r\n        uint actualRate = getRate(); //amountWei\r\n        // uint rateScale = getRateScale();\r\n\r\n        require(validPurchase(amountWei, actualRate, totalSupply));\r\n\r\n        // calculate token amount to be created\r\n        // uint tokens = amountWei.mul(actualRate).div(rateScale);\r\n        uint256 tokens = amountWei.mul(actualRate);\r\n\r\n\r\n        // change, if minted token would be less\r\n        uint change = 0;\r\n\r\n        // if hard cap reached\r\n        if (tokens.add(totalSupply) > hardCap) {\r\n            // rest tokens\r\n            uint maxTokens = hardCap.sub(totalSupply);\r\n            uint realAmount = maxTokens.div(actualRate);\r\n\r\n            // rest tokens rounded by actualRate\r\n            tokens = realAmount.mul(actualRate);\r\n            change = amountWei - realAmount;\r\n            amountWei = realAmount;\r\n        }\r\n\r\n\r\n        // update state\r\n        weiRaised = weiRaised.add(amountWei);\r\n        // soldTokens = soldTokens.add(tokens);\r\n\r\n        token.mint(beneficiary, tokens);\r\n        TokenPurchase(beneficiary, beneficiary, amountWei, tokens);\r\n\r\n\r\n        if (change != 0) {\r\n            msg.sender.transfer(change);\r\n        }\r\n\r\n        \r\n        forwardFunds(beneficiary, amountWei);\r\n    }\r\n\r\n    // send ether to the fund collection wallet\r\n    // override to create custom fund forwarding mechanisms\r\n    function forwardFunds(address beneficiary, uint amountWei) internal {\r\n        wallet.transfer(msg.value);\r\n    }\r\n\r\n    // @return true if the transaction can buy tokens\r\n    function validPurchase(uint _amountWei, uint _actualRate, uint _totalSupply) internal constant returns (bool) {\r\n        bool withinPeriod = now >= startTime && now <= endTime;\r\n        bool nonZeroPurchase = _amountWei != 0;\r\n        bool hardCapNotReached = _totalSupply <= hardCap.sub(_actualRate);\r\n\r\n        return withinPeriod && nonZeroPurchase && hardCapNotReached;\r\n    }\r\n\r\n    // @return true if crowdsale event has ended\r\n    function hasEnded() public constant returns (bool) {\r\n        return now > endTime || token.totalSupply() > hardCap.sub(rate);\r\n    }\r\n\r\n    /**\r\n     * @return true if crowdsale event has started\r\n     */\r\n    function hasStarted() public constant returns (bool) {\r\n        return now >= startTime;\r\n    }\r\n\r\n    /**\r\n     * @dev Check this crowdsale event has ended considering with amount to buy.\r\n     * @param _value Amount to spend.\r\n     * @return true if crowdsale event has ended\r\n     */\r\n    // function hasEnded(uint _value) public constant returns (bool) {\r\n    //     uint actualRate = getRate(); //_value\r\n    //     return now > endTime || token.totalSupply() > hardCap.sub(actualRate);\r\n    // }\r\n}",
  "sourcePath": "C:\\OpenServer\\domains\\smart_contracts\\sale\\contracts\\base\\crowdsale\\Crowdsale.sol",
  "compiler": {
    "name": "solc",
    "version": "0.4.18+commit.9cf6e910.Emscripten.clang"
  },
  "schemaVersion": "1.0.1",
  "updatedAt": "2017-11-14T07:35:08.851Z"
}