{
  "contractName": "Cryptosale",
  "abi": [
    {
      "constant": true,
      "inputs": [],
      "name": "refundVault",
      "outputs": [
        {
          "name": "",
          "type": "address"
        }
      ],
      "payable": false,
      "stateMutability": "view",
      "type": "function"
    },
    {
      "constant": false,
      "inputs": [],
      "name": "referralWithdraw",
      "outputs": [],
      "payable": false,
      "stateMutability": "nonpayable",
      "type": "function"
    },
    {
      "constant": true,
      "inputs": [],
      "name": "referralRevenueRate",
      "outputs": [
        {
          "name": "",
          "type": "uint256"
        }
      ],
      "payable": false,
      "stateMutability": "view",
      "type": "function"
    },
    {
      "constant": false,
      "inputs": [],
      "name": "withdraw",
      "outputs": [],
      "payable": false,
      "stateMutability": "nonpayable",
      "type": "function"
    },
    {
      "constant": true,
      "inputs": [],
      "name": "goal",
      "outputs": [
        {
          "name": "",
          "type": "uint256"
        }
      ],
      "payable": false,
      "stateMutability": "view",
      "type": "function"
    },
    {
      "constant": true,
      "inputs": [],
      "name": "weiRaised",
      "outputs": [
        {
          "name": "",
          "type": "uint256"
        }
      ],
      "payable": false,
      "stateMutability": "view",
      "type": "function"
    },
    {
      "constant": true,
      "inputs": [],
      "name": "tokenHolder",
      "outputs": [
        {
          "name": "",
          "type": "address"
        }
      ],
      "payable": false,
      "stateMutability": "view",
      "type": "function"
    },
    {
      "constant": false,
      "inputs": [
        {
          "name": "_crowdsale",
          "type": "address"
        }
      ],
      "name": "setCrowdsale",
      "outputs": [],
      "payable": false,
      "stateMutability": "nonpayable",
      "type": "function"
    },
    {
      "constant": false,
      "inputs": [],
      "name": "finalize",
      "outputs": [],
      "payable": false,
      "stateMutability": "nonpayable",
      "type": "function"
    },
    {
      "constant": true,
      "inputs": [
        {
          "name": "",
          "type": "address"
        }
      ],
      "name": "ReferralMapPartnerBonus",
      "outputs": [
        {
          "name": "",
          "type": "uint256"
        }
      ],
      "payable": false,
      "stateMutability": "view",
      "type": "function"
    },
    {
      "constant": true,
      "inputs": [],
      "name": "revenuePercent",
      "outputs": [
        {
          "name": "",
          "type": "uint256"
        }
      ],
      "payable": false,
      "stateMutability": "view",
      "type": "function"
    },
    {
      "constant": true,
      "inputs": [],
      "name": "goalReached",
      "outputs": [
        {
          "name": "",
          "type": "bool"
        }
      ],
      "payable": false,
      "stateMutability": "view",
      "type": "function"
    },
    {
      "constant": false,
      "inputs": [
        {
          "name": "_rate",
          "type": "uint256"
        }
      ],
      "name": "setReferralRevenueRate",
      "outputs": [],
      "payable": false,
      "stateMutability": "nonpayable",
      "type": "function"
    },
    {
      "constant": true,
      "inputs": [],
      "name": "isFinalized",
      "outputs": [
        {
          "name": "",
          "type": "bool"
        }
      ],
      "payable": false,
      "stateMutability": "view",
      "type": "function"
    },
    {
      "constant": true,
      "inputs": [],
      "name": "owner",
      "outputs": [
        {
          "name": "",
          "type": "address"
        }
      ],
      "payable": false,
      "stateMutability": "view",
      "type": "function"
    },
    {
      "constant": false,
      "inputs": [],
      "name": "claimRefund",
      "outputs": [],
      "payable": false,
      "stateMutability": "nonpayable",
      "type": "function"
    },
    {
      "constant": true,
      "inputs": [],
      "name": "referralRefundVault",
      "outputs": [
        {
          "name": "",
          "type": "address"
        }
      ],
      "payable": false,
      "stateMutability": "view",
      "type": "function"
    },
    {
      "constant": false,
      "inputs": [
        {
          "name": "code",
          "type": "uint256"
        },
        {
          "name": "partner",
          "type": "address"
        },
        {
          "name": "bonusPercent",
          "type": "uint256"
        }
      ],
      "name": "addReferralCode",
      "outputs": [
        {
          "name": "",
          "type": "bool"
        }
      ],
      "payable": false,
      "stateMutability": "nonpayable",
      "type": "function"
    },
    {
      "constant": false,
      "inputs": [
        {
          "name": "referralCode",
          "type": "uint256"
        }
      ],
      "name": "buy",
      "outputs": [],
      "payable": true,
      "stateMutability": "payable",
      "type": "function"
    },
    {
      "constant": true,
      "inputs": [
        {
          "name": "",
          "type": "uint256"
        }
      ],
      "name": "ReferralMapCodePartner",
      "outputs": [
        {
          "name": "",
          "type": "address"
        }
      ],
      "payable": false,
      "stateMutability": "view",
      "type": "function"
    },
    {
      "constant": false,
      "inputs": [
        {
          "name": "newOwner",
          "type": "address"
        }
      ],
      "name": "transferOwnership",
      "outputs": [],
      "payable": false,
      "stateMutability": "nonpayable",
      "type": "function"
    },
    {
      "inputs": [
        {
          "name": "_goal",
          "type": "uint256"
        },
        {
          "name": "_revenueWallet",
          "type": "address"
        },
        {
          "name": "_revenuePercent",
          "type": "uint256"
        }
      ],
      "payable": false,
      "stateMutability": "nonpayable",
      "type": "constructor"
    },
    {
      "payable": true,
      "stateMutability": "payable",
      "type": "fallback"
    },
    {
      "anonymous": false,
      "inputs": [
        {
          "indexed": true,
          "name": "previousOwner",
          "type": "address"
        },
        {
          "indexed": true,
          "name": "newOwner",
          "type": "address"
        }
      ],
      "name": "OwnershipTransferred",
      "type": "event"
    }
  ],
  "bytecode": "0x60606040526003805460a060020a60ff02191690556001600955341561002457600080fd5b604051606080620029a783398101604052808051919060200180519190602001805160008054600160a060020a03191633600160a060020a03161781559092508211905080156100745750606481105b151561007f57600080fd5b6000831161008c57600080fd5b610094610186565b604051809103906000f08015156100aa57600080fd5b60018054600160a060020a031916600160a060020a03928316179081905516826100d2610197565b600160a060020a0392831681529116602082015260409081019051809103906000f080151561010057600080fd5b60038054600160a060020a031916600160a060020a039283161790556002829055600154168261012e6101a8565b600160a060020a0392831681529116602082015260409081019051809103906000f080151561015c57600080fd5b60088054600160a060020a031916600160a060020a039290921691909117905550506004556101b9565b604051610b4b806200100283390190565b6040516106418062001b4d83390190565b604051610819806200218e83390190565b610e3980620001c96000396000f3006060604052600436106101035763ffffffff60e060020a60003504166311777af78114610111578063261a4b4f1461014057806331e25f40146101535780633ccfd60b14610178578063401938831461018b5780634042b66f1461019e578063420a83e7146101b1578063483a20b2146101c45780634bb278f3146101e35780635a701e51146101f657806371ab94df146102155780637d3d6522146102285780637f06d3a51461024f5780638d4e4083146102655780638da5cb5b14610278578063b5545a3c1461028b578063c582a6f91461029e578063c9471c5e146102b1578063d96a094a146102d6578063e9d6235f146102e1578063f2fde38b146102f7575b61010f33346000610316565b005b341561011c57600080fd5b610124610631565b604051600160a060020a03909116815260200160405180910390f35b341561014b57600080fd5b61010f610640565b341561015e57600080fd5b6101666106a6565b60405190815260200160405180910390f35b341561018357600080fd5b61010f6106ac565b341561019657600080fd5b6101666106fc565b34156101a957600080fd5b610166610702565b34156101bc57600080fd5b610124610708565b34156101cf57600080fd5b61010f600160a060020a0360043516610717565b34156101ee57600080fd5b61010f610828565b341561020157600080fd5b610166600160a060020a0360043516610927565b341561022057600080fd5b610166610939565b341561023357600080fd5b61023b61093f565b604051901515815260200160405180910390f35b341561025a57600080fd5b61010f600435610949565b341561027057600080fd5b61023b610976565b341561028357600080fd5b610124610986565b341561029657600080fd5b61010f610995565b34156102a957600080fd5b610124610ba1565b34156102bc57600080fd5b61023b600435600160a060020a0360243516604435610bb0565b61010f600435610c67565b34156102ec57600080fd5b610124600435610c95565b341561030257600080fd5b61010f600160a060020a0360043516610cb0565b600080600080600080600080600360149054906101000a900460ff1615151561033e57600080fd5b61034661093f565b1561035057600080fd5b610376606461036a6002548d610d4b90919063ffffffff16565b9063ffffffff610d7616565b97506103888a8963ffffffff610d8d16565b96508895508515156103a05761039d8a610d9f565b95505b600086815260066020526040902054600160a060020a03169450841561042a57600160a060020a0385166000908152600760205260409020546009549094506064906103f390869063ffffffff610d4b16565b106103fd57600080fd5b610427606461036a61041a60095488610d4b90919063ffffffff16565b8b9063ffffffff610d4b16565b92505b60045460055460009350610444908963ffffffff610dfe16565b11156104865760055460045461045f9163ffffffff610d8d16565b9050610471878263ffffffff610d8d16565b9150610483878363ffffffff610d8d16565b96505b600154600160a060020a031663f340fa01888d60405160e060020a63ffffffff8516028152600160a060020a0390911660048201526024016000604051808303818588803b15156104d657600080fd5b6125ee5a03f115156104e757600080fd5b50506005546104ff925090508863ffffffff610dfe16565b600555600354600160a060020a031663d1aea5436105238a8663ffffffff610d8d16565b8d60405160e060020a63ffffffff8516028152600160a060020a0390911660048201526024016000604051808303818588803b151561056157600080fd5b6125ee5a03f1151561057257600080fd5b5050505060008311156105ed57600854600160a060020a0316635045e889848d8860405160e060020a63ffffffff8616028152600160a060020a039283166004820152911660248201526044016000604051808303818588803b15156105d757600080fd5b6125ee5a03f115156105e857600080fd5b505050505b811561062457600160a060020a03331682156108fc0283604051600060405180830381858888f19350505050151561062457600080fd5b5050505050505050505050565b600354600160a060020a031681565b600854600160a060020a03166351cff8d93360405160e060020a63ffffffff8416028152600160a060020a039091166004820152602401600060405180830381600087803b151561069057600080fd5b6102c65a03f115156106a157600080fd5b505050565b60095481565b600154600160a060020a03166351cff8d93360405160e060020a63ffffffff8416028152600160a060020a039091166004820152602401600060405180830381600087803b151561069057600080fd5b60045481565b60055481565b600154600160a060020a031681565b60005433600160a060020a0390811691161461073257600080fd5b600160a060020a038116151561074757600080fd5b600154600090600160a060020a0316639c1e03a082604051602001526040518163ffffffff1660e060020a028152600401602060405180830381600087803b151561079157600080fd5b6102c65a03f115156107a257600080fd5b50505060405180519050600160a060020a03161415156107c157600080fd5b600154600160a060020a031663483a20b28260405160e060020a63ffffffff8416028152600160a060020a039091166004820152602401600060405180830381600087803b151561081157600080fd5b6102c65a03f1151561082257600080fd5b50505050565b60005433600160a060020a0390811691161461084357600080fd5b60035460a060020a900460ff161561085a57600080fd5b6003805474ff0000000000000000000000000000000000000000191660a060020a179055600154600160a060020a03166350d4a2b96000604051602001526040518163ffffffff1660e060020a028152600401602060405180830381600087803b15156108c657600080fd5b6102c65a03f115156108d757600080fd5b505050604051805190501561092557600354600160a060020a03166343d726d66040518163ffffffff1660e060020a028152600401600060405180830381600087803b151561069057600080fd5b565b60076020526000908152604090205481565b60025481565b6004546005541490565b60005433600160a060020a0390811691161461096457600080fd5b6000811161097157600080fd5b600955565b60035460a060020a900460ff1681565b600054600160a060020a031681565b60035460a060020a900460ff1615156109ad57600080fd5b600154600160a060020a031663213294cd6000604051602001526040518163ffffffff1660e060020a028152600401602060405180830381600087803b15156109f557600080fd5b6102c65a03f11515610a0657600080fd5b505050604051805190508015610a7c5750600154600160a060020a03166350d4a2b96000604051602001526040518163ffffffff1660e060020a028152600401602060405180830381600087803b1515610a5f57600080fd5b6102c65a03f11515610a7057600080fd5b50505060405180519050155b1515610a8757600080fd5b600154600160a060020a031663bffa55d53360405160e060020a63ffffffff8416028152600160a060020a039091166004820152602401600060405180830381600087803b1515610ad757600080fd5b6102c65a03f11515610ae857600080fd5b5050600354600160a060020a0316905063bffa55d53360405160e060020a63ffffffff8416028152600160a060020a039091166004820152602401600060405180830381600087803b1515610b3c57600080fd5b6102c65a03f11515610b4d57600080fd5b5050600854600160a060020a0316905063bffa55d53360405160e060020a63ffffffff8416028152600160a060020a039091166004820152602401600060405180830381600087803b151561069057600080fd5b600854600160a060020a031681565b6000805433600160a060020a03908116911614610bcc57600080fd5b600082118015610bdc5750606482105b1515610be757600080fd5b600160a060020a0383161515610bfc57600080fd5b6127108410158015610c1157506201869f8411155b1515610c1c57600080fd5b506000928352600660209081526040808520805473ffffffffffffffffffffffffffffffffffffffff1916600160a060020a0395909516948517905592845260079052912055600190565b6127108110158015610c7c57506201869f8111155b1515610c8757600080fd5b610c92333483610316565b50565b600660205260009081526040902054600160a060020a031681565b60005433600160a060020a03908116911614610ccb57600080fd5b600160a060020a0381161515610ce057600080fd5b600054600160a060020a0380831691167f8be0079c531659141344cd1fd0a4f28419497f9722a3daafe3b4186f6b6457e060405160405180910390a36000805473ffffffffffffffffffffffffffffffffffffffff1916600160a060020a0392909216919091179055565b6000828202831580610d675750828482811515610d6457fe5b04145b1515610d6f57fe5b9392505050565b6000808284811515610d8457fe5b04949350505050565b600082821115610d9957fe5b50900390565b60008080610db88464174876e80063ffffffff610d7616565b9150610de4620186a0610dd886662386f26fc1000063ffffffff610d7616565b9063ffffffff610d4b16565b9050610df6828263ffffffff610d8d16565b949350505050565b600082820183811015610d6f57fe00a165627a7a72305820627b2338c9c42751757fca5fe86cd393d357d92f88deb01db3dea715f5be7b580029606060405260008054600160a060020a033316600160a060020a0319909116179055610b1b806100306000396000f3006060604052600436106100ab5763ffffffff60e060020a600035041663213294cd81146100ad578063322ba9f3146100d4578063483a20b2146100f957806350d4a2b91461011857806351cff8d91461012b5780638da5cb5b1461014a5780639c1e03a014610179578063bffa55d51461018c578063cb13cddb146101ab578063d86981f1146101ca578063de771882146101dd578063f2fde38b146101f0578063f340fa011461020f575b005b34156100b857600080fd5b6100c0610223565b604051901515815260200160405180910390f35b34156100df57600080fd5b6100e761028c565b60405190815260200160405180910390f35b341561010457600080fd5b6100ab600160a060020a036004351661036b565b341561012357600080fd5b6100c06103b5565b341561013657600080fd5b6100ab600160a060020a03600435166103ff565b341561015557600080fd5b61015d610613565b604051600160a060020a03909116815260200160405180910390f35b341561018457600080fd5b61015d610622565b341561019757600080fd5b6100ab600160a060020a0360043516610631565b34156101b657600080fd5b6100e7600160a060020a0360043516610908565b34156101d557600080fd5b6100e761091a565b34156101e857600080fd5b6100e7610964565b34156101fb57600080fd5b6100ab600160a060020a03600435166109ae565b6100ab600160a060020a0360043516610a49565b600254600090600160a060020a031663ecb70fb782604051602001526040518163ffffffff1660e060020a028152600401602060405180830381600087803b151561026d57600080fd5b6102c65a03f1151561027e57600080fd5b505050604051805191505090565b6002546000908190600160a060020a031663fbfa77cf82604051602001526040518163ffffffff1660e060020a028152600401602060405180830381600087803b15156102d857600080fd5b6102c65a03f115156102e957600080fd5b5050506040518051915050600160a060020a03811663cb13cddb3060006040516020015260405160e060020a63ffffffff8416028152600160a060020a039091166004820152602401602060405180830381600087803b151561034b57600080fd5b6102c65a03f1151561035c57600080fd5b50505060405180519250505090565b60005433600160a060020a0390811691161461038657600080fd5b6002805473ffffffffffffffffffffffffffffffffffffffff1916600160a060020a0392909216919091179055565b600254600090600160a060020a0316637d3d652282604051602001526040518163ffffffff1660e060020a028152600401602060405180830381600087803b151561026d57600080fd5b60008054819033600160a060020a0390811691161461041d57600080fd5b600254600160a060020a031663ecb70fb76000604051602001526040518163ffffffff1660e060020a028152600401602060405180830381600087803b151561046557600080fd5b6102c65a03f1151561047657600080fd5b5050506040518051905080156104eb5750600254600160a060020a0316637d3d65226000604051602001526040518163ffffffff1660e060020a028152600401602060405180830381600087803b15156104cf57600080fd5b6102c65a03f115156104e057600080fd5b505050604051805190505b15156104f657600080fd5b600160a060020a0383166000908152600160205260408120549250821161051c57600080fd5b600160a060020a038084166000908152600160205260408082208290556002549092169163fc0c546a919051602001526040518163ffffffff1660e060020a028152600401602060405180830381600087803b151561057a57600080fd5b6102c65a03f1151561058b57600080fd5b5050506040518051915050600160a060020a03811663a9059cbb848460006040516020015260405160e060020a63ffffffff8516028152600160a060020a0390921660048301526024820152604401602060405180830381600087803b15156105f357600080fd5b6102c65a03f1151561060457600080fd5b50505060405180515050505050565b600054600160a060020a031681565b600254600160a060020a031681565b60008054819033600160a060020a0390811691161461064f57600080fd5b600254600160a060020a031663ecb70fb76000604051602001526040518163ffffffff1660e060020a028152600401602060405180830381600087803b151561069757600080fd5b6102c65a03f115156106a857600080fd5b50505060405180519050801561071e5750600254600160a060020a0316637d3d65226000604051602001526040518163ffffffff1660e060020a028152600401602060405180830381600087803b151561070157600080fd5b6102c65a03f1151561071257600080fd5b50505060405180519050155b151561072957600080fd5b600160a060020a0383166000908152600160205260408120549250821161074f57600080fd5b600254600160a060020a031663fbfa77cf6000604051602001526040518163ffffffff1660e060020a028152600401602060405180830381600087803b151561079757600080fd5b6102c65a03f115156107a857600080fd5b505050604051805190509050600081600160a060020a031663cb13cddb3060006040516020015260405160e060020a63ffffffff8416028152600160a060020a039091166004820152602401602060405180830381600087803b151561080d57600080fd5b6102c65a03f1151561081e57600080fd5b50505060405180519050111561088257600254600160a060020a031663b5545a3c6040518163ffffffff1660e060020a028152600401600060405180830381600087803b151561086d57600080fd5b6102c65a03f1151561087e57600080fd5b5050505b600160a060020a0383166000818152600160205260408082209190915583156108fc0290849051600060405180830381858888f1935050505015156108c657600080fd5b82600160a060020a03167fd7dee2702d63ad89917b6a4da9981c90c4d24f8c2bdfd64c604ecae57d8d06518360405190815260200160405180910390a2505050565b60016020526000908152604090205481565b600254600090600160a060020a0316633197cbb682604051602001526040518163ffffffff1660e060020a028152600401602060405180830381600087803b151561026d57600080fd5b600254600090600160a060020a03166378e9792582604051602001526040518163ffffffff1660e060020a028152600401602060405180830381600087803b151561026d57600080fd5b60005433600160a060020a039081169116146109c957600080fd5b600160a060020a03811615156109de57600080fd5b600054600160a060020a0380831691167f8be0079c531659141344cd1fd0a4f28419497f9722a3daafe3b4186f6b6457e060405160405180910390a36000805473ffffffffffffffffffffffffffffffffffffffff1916600160a060020a0392909216919091179055565b60005433600160a060020a03908116911614610a6457600080fd5b600254600160a060020a03163460405160006040518083038185876187965a03f1925050501515610a9457600080fd5b600160a060020a038116600090815260016020526040902054610abd903463ffffffff610ad916565b600160a060020a03909116600090815260016020526040902055565b600082820183811015610ae857fe5b93925050505600a165627a7a723058205cd9b5934d6126d84889b1f99afa11f3c3fc9c4009f234e9db522a08199c3f9800296060604052341561000f57600080fd5b604051604080610641833981016040528080519190602001805160008054600160a060020a03191633600160a060020a039081169190911790915590925082161515905061005c57600080fd5b60018054600160a060020a03928316600160a060020a031991821617909155600380549390921692169190911790556105a78061009a6000396000f30060606040526004361061007f5763ffffffff60e060020a60003504166312065fe08114610084578063420a83e7146100a957806343d726d6146100d8578063521eb273146100ed5780638da5cb5b14610100578063bffa55d514610113578063cb13cddb14610132578063d1aea54314610151578063f2fde38b14610165575b600080fd5b341561008f57600080fd5b610097610184565b60405190815260200160405180910390f35b34156100b457600080fd5b6100bc610192565b604051600160a060020a03909116815260200160405180910390f35b34156100e357600080fd5b6100eb6101a1565b005b34156100f857600080fd5b6100bc6101f7565b341561010b57600080fd5b6100bc610206565b341561011e57600080fd5b6100eb600160a060020a0360043516610215565b341561013d57600080fd5b610097600160a060020a03600435166103b6565b6100eb600160a060020a03600435166103c8565b341561017057600080fd5b6100eb600160a060020a03600435166104ca565b600160a060020a0330163190565b600354600160a060020a031681565b60005433600160a060020a039081169116146101bc57600080fd5b600154600160a060020a039081169030163180156108fc0290604051600060405180830381858888f1935050505015156101f557600080fd5b565b600154600160a060020a031681565b600054600160a060020a031681565b6000805433600160a060020a0390811691161461023157600080fd5b600354600160a060020a031663213294cd6000604051602001526040518163ffffffff1660e060020a028152600401602060405180830381600087803b151561027957600080fd5b6102c65a03f1151561028a57600080fd5b5050506040518051905080156103005750600354600160a060020a03166350d4a2b96000604051602001526040518163ffffffff1660e060020a028152600401602060405180830381600087803b15156102e357600080fd5b6102c65a03f115156102f457600080fd5b50505060405180519050155b151561030b57600080fd5b50600160a060020a03811660009081526002602052604081205490811161033157600080fd5b600160a060020a0382166000818152600260205260408082209190915582156108fc0290839051600060405180830381858888f19350505050151561037557600080fd5b81600160a060020a03167fd7dee2702d63ad89917b6a4da9981c90c4d24f8c2bdfd64c604ecae57d8d06518260405190815260200160405180910390a25050565b60026020526000908152604090205481565b60005433600160a060020a039081169116146103e357600080fd5b600354600160a060020a03166350d4a2b96000604051602001526040518163ffffffff1660e060020a028152600401602060405180830381600087803b151561042b57600080fd5b6102c65a03f1151561043c57600080fd5b505050604051805190501561048457600154600160a060020a03163480156108fc0290604051600060405180830381858888f19350505050151561047f57600080fd5b6104c7565b600160a060020a0381166000908152600260205260409020546104ad903463ffffffff61056516565b600160a060020a0382166000908152600260205260409020555b50565b60005433600160a060020a039081169116146104e557600080fd5b600160a060020a03811615156104fa57600080fd5b600054600160a060020a0380831691167f8be0079c531659141344cd1fd0a4f28419497f9722a3daafe3b4186f6b6457e060405160405180910390a36000805473ffffffffffffffffffffffffffffffffffffffff1916600160a060020a0392909216919091179055565b60008282018381101561057457fe5b93925050505600a165627a7a72305820824052b9b744a0583c7915177f1c3699eec37a3858207f4417eab963155f6fdb00296060604052341561000f57600080fd5b604051604080610819833981016040528080519190602001805160008054600160a060020a03338116600160a060020a03199283161790925560038054968316968216969096179095556004805491909216941693909317909255505061079e8061007b6000396000f3006060604052600436106100955763ffffffff60e060020a6000350416630c572d92811461009a57806312065fe0146100af578063420a83e7146100d45780635045e8891461010357806351cff8d91461011d5780638bcfab341461013c5780638da5cb5b1461015b578063b12ce2481461016e578063bffa55d514610181578063cb13cddb146101a0578063f2fde38b146101bf575b600080fd5b34156100a557600080fd5b6100ad6101de565b005b34156100ba57600080fd5b6100c2610290565b60405190815260200160405180910390f35b34156100df57600080fd5b6100e761029e565b604051600160a060020a03909116815260200160405180910390f35b6100ad600160a060020a03600435811690602435166102ad565b341561012857600080fd5b6100ad600160a060020a03600435166103ea565b341561014757600080fd5b6100c2600160a060020a03600435166104de565b341561016657600080fd5b6100e76104f0565b341561017957600080fd5b6100e76104ff565b341561018c57600080fd5b6100ad600160a060020a036004351661050e565b34156101ab57600080fd5b6100c2600160a060020a03600435166106af565b34156101ca57600080fd5b6100ad600160a060020a03600435166106c1565b6003544290600160a060020a031663d86981f16000604051602001526040518163ffffffff1660e060020a028152600401602060405180830381600087803b151561022857600080fd5b6102c65a03f1151561023957600080fd5b505050604051805190506276a700011115151561025557600080fd5b600454600160a060020a039081169030163180156108fc0290604051600060405180830381858888f19350505050151561028e57600080fd5b565b600160a060020a0330163190565b600354600160a060020a031681565b60005433600160a060020a039081169116146102c857600080fd5b600354600160a060020a03166350d4a2b96000604051602001526040518163ffffffff1660e060020a028152600401602060405180830381600087803b151561031057600080fd5b6102c65a03f1151561032157600080fd5b505050604051805190501561036757600160a060020a0381163480156108fc0290604051600060405180830381858888f19350505050151561036257600080fd5b6103e6565b600160a060020a038216600090815260026020526040902054610390903463ffffffff61075c16565b600160a060020a038084166000908152600260209081526040808320949094559184168152600190915220546103cc903463ffffffff61075c16565b600160a060020a0382166000908152600160205260409020555b5050565b6000805433600160a060020a0390811691161461040657600080fd5b600354600160a060020a03166350d4a2b96000604051602001526040518163ffffffff1660e060020a028152600401602060405180830381600087803b151561044e57600080fd5b6102c65a03f1151561045f57600080fd5b50505060405180519050151561047457600080fd5b50600160a060020a03811660009081526001602052604081205490811161049a57600080fd5b600160a060020a0382166000818152600160205260408082209190915582156108fc0290839051600060405180830381858888f1935050505015156103e657600080fd5b60016020526000908152604090205481565b600054600160a060020a031681565b600454600160a060020a031681565b6000805433600160a060020a0390811691161461052a57600080fd5b600354600160a060020a031663213294cd6000604051602001526040518163ffffffff1660e060020a028152600401602060405180830381600087803b151561057257600080fd5b6102c65a03f1151561058357600080fd5b5050506040518051905080156105f95750600354600160a060020a03166350d4a2b96000604051602001526040518163ffffffff1660e060020a028152600401602060405180830381600087803b15156105dc57600080fd5b6102c65a03f115156105ed57600080fd5b50505060405180519050155b151561060457600080fd5b50600160a060020a03811660009081526002602052604081205490811161062a57600080fd5b600160a060020a0382166000818152600260205260408082209190915582156108fc0290839051600060405180830381858888f19350505050151561066e57600080fd5b81600160a060020a03167fd7dee2702d63ad89917b6a4da9981c90c4d24f8c2bdfd64c604ecae57d8d06518260405190815260200160405180910390a25050565b60026020526000908152604090205481565b60005433600160a060020a039081169116146106dc57600080fd5b600160a060020a03811615156106f157600080fd5b600054600160a060020a0380831691167f8be0079c531659141344cd1fd0a4f28419497f9722a3daafe3b4186f6b6457e060405160405180910390a36000805473ffffffffffffffffffffffffffffffffffffffff1916600160a060020a0392909216919091179055565b60008282018381101561076b57fe5b93925050505600a165627a7a723058207949a8e96b109a42847659554c523e602a0473f8cb12da9edbf49a72b176e3570029",
  "source": "pragma solidity ^0.4.16;\r\n\r\nimport \"./base/ownership/Ownable.sol\";\r\nimport \"./base/math/SafeMath.sol\";\r\n\r\nimport \"./TokenHolder.sol\";\r\nimport \"./CryptosaleRefundVault.sol\";\r\nimport \"./ReferralRefundVault.sol\";\r\n\r\n// Main cryptosale contract\r\ncontract Cryptosale is Ownable {\r\n\tusing SafeMath for uint;\r\n\r\n\t// This contract knows that who how much bought tokens\r\n\tTokenHolder public tokenHolder;\r\n\t\r\n\t// Revenue percentage cryptosale\r\n\tuint public revenuePercent;\r\n\t// Storage contract of revenue cryptosale\r\n\tCryptosaleRefundVault public refundVault;\r\n\r\n\t// Flag of end cryptosale\r\n\tbool public isFinalized = false;\r\n\t\r\n\t// Minimum amount of funds to be raised in weis\r\n    uint public goal;\r\n    // Amount of raised money in wei\r\n    uint public weiRaised;\r\n\r\n\t// referralCode => partnerAddr => bonusPercent\r\n\tmapping (uint => address) public ReferralMapCodePartner;\r\n\tmapping (address => uint) public ReferralMapPartnerBonus;\r\n\t// Storage contract of referral revenue\r\n\tReferralRefundVault public referralRefundVault;\r\n\tuint public referralRevenueRate = 1;\r\n\r\n\t// Constructor function\r\n\tfunction Cryptosale(uint _goal, address _revenueWallet, uint _revenuePercent) {\r\n\t\trequire(_revenuePercent > 0 && _revenuePercent < 100);\r\n\t\trequire(_goal > 0);\r\n\r\n\t\ttokenHolder = new TokenHolder();\r\n\t\trefundVault = new CryptosaleRefundVault(address(tokenHolder), _revenueWallet);\r\n\t\trevenuePercent = _revenuePercent;\r\n\r\n\t\treferralRefundVault = new ReferralRefundVault(address(tokenHolder), _revenueWallet);\r\n\r\n\t\tgoal = _goal;\r\n\t}\r\n\r\n\t/**\r\n\t * payable methods\r\n\t */\r\n\r\n\t// Buy sale tokens from crowdsale contract\r\n\tfunction() payable {\r\n\t\tbuyTokens(msg.sender, msg.value, 0);\r\n\t}\r\n\r\n\tfunction buy(uint referralCode) payable {\r\n\t\trequire(referralCode >= 10000 && referralCode <= 99999); // 5\r\n\r\n\t\tbuyTokens(msg.sender, msg.value, referralCode);\r\n\t}\r\n\r\n\t/**\r\n\t * public methods\r\n\t */\r\n\r\n\t// Return funds if softcup is not reached\r\n\t// Throws exeption if crowdsale is not finished\r\n\tfunction claimRefund() public {\r\n\t\trequire(isFinalized);\r\n\t\trequire(tokenHolder.crowdsaleHasEnded() && !tokenHolder.crowdsaleGoalReached());\r\n\r\n\t\ttokenHolder.claimRefund(msg.sender);\r\n\t\trefundVault.claimRefund(msg.sender);\r\n\t\treferralRefundVault.claimRefund(msg.sender);\r\n\t}\r\n\r\n\t// Investor can get buyed tokens if crowdsale ended and reached goal(tokenHolder's state == Withdraw (facade method))\r\n\tfunction withdraw() public {\r\n\t\ttokenHolder.withdraw(msg.sender);\r\n\t}\r\n\r\n\t// Referral partners can get revenue if crowdsale reached goal(referralRefundVault's state == Withdraw (facade method))\r\n\tfunction referralWithdraw() public {\r\n\t\treferralRefundVault.withdraw(msg.sender);\r\n\t}\r\n\r\n\r\n\t// Check that cryptosale contract is reached \r\n\tfunction goalReached() public constant returns (bool) {\r\n        return weiRaised == goal; //>=\r\n    }\r\n\r\n\r\n    /**\r\n\t * internal methods\r\n\t */\r\n\r\n\t// Main calculation\r\n\tfunction buyTokens(address beneficiary, uint amountWei, uint _referralCode) internal {\r\n\t\trequire(!isFinalized);\r\n\t\trequire(!goalReached());\r\n\r\n\t\tuint revenueAmountWei = amountWei.mul(revenuePercent).div(100);\r\n\t\tuint restAmountWei = amountWei.sub(revenueAmountWei);\r\n\r\n\t\tuint referralCode = _referralCode; // 2. referral code from function parameter\r\n\t\tif (referralCode == 0) {\r\n\t\t\treferralCode = getReferralCode(amountWei); // 1. referral code from msg.value\r\n\t\t}\r\n\t\taddress referralPartner = ReferralMapCodePartner[referralCode];\r\n\t\tif (referralPartner != address(0)) {\r\n\t\t\tuint bonusPercent = ReferralMapPartnerBonus[referralPartner];\r\n\t\t\trequire(bonusPercent.mul(referralRevenueRate) < 100);\r\n\r\n\t\t\t// bonusPercent > 0\r\n\t\t\tuint referralRevenueAmountWei = revenueAmountWei.mul(bonusPercent.mul(referralRevenueRate)).div(100);\r\n\t\t}\r\n\r\n\t\tuint change = 0;\r\n\t\tif (weiRaised.add(restAmountWei) > goal) {\r\n\t\t\tuint realAmount = goal.sub(weiRaised);\r\n\t\t\tchange = restAmountWei.sub(realAmount);\r\n\t\t\trestAmountWei = restAmountWei.sub(change);\r\n\t\t}\r\n\r\n\t\ttokenHolder.deposit.value(restAmountWei)(beneficiary);\r\n\t\t\r\n\t\t// Update state\r\n        weiRaised = weiRaised.add(restAmountWei);\r\n\r\n\t\trefundVault.forwardFunds.value(revenueAmountWei.sub(referralRevenueAmountWei))(beneficiary);\r\n\t\tif (referralRevenueAmountWei > 0) {\r\n\t\t\treferralRefundVault.forwardFunds.value(referralRevenueAmountWei)(beneficiary, referralPartner);\r\n\t\t}\r\n\r\n\t\tif (change != 0) {\r\n            msg.sender.transfer(change);\r\n        }\r\n\t}\r\n\r\n\t// Get referral code from amount of Wei\r\n\tfunction getReferralCode(uint amountWei) internal constant returns(uint) {\r\n\t\tuint meaningPartAmount = amountWei.div(100000000000); // 18 - 2 - 5\r\n\t\tuint basicPartAmount = amountWei.div(10000000000000000).mul(100000); // (18 - 2) * 5\r\n\r\n\t\treturn meaningPartAmount.sub(basicPartAmount);\r\n\t}\r\n\r\n\t/**\r\n\t * only owner methods\r\n\t */\r\n\r\n\t// Method for changing crowdsale contract\r\n\tfunction setCrowdsale(address _crowdsale) onlyOwner public {\r\n\t\trequire(_crowdsale != 0x0);\r\n\t\trequire(tokenHolder.crowdsale() == address(0)); // can set crowdsale once\r\n\r\n\t\ttokenHolder.setCrowdsale(_crowdsale);\r\n\t}\r\n\r\n\t// Finalize cryptosale\r\n\tfunction finalize() onlyOwner public {\r\n\t\trequire(!isFinalized);\r\n\t\t// require(!tokenHolder.crowdsaleIsFinalized());\r\n\t\t// require(tokenHolder.crowdsaleHasEnded());\r\n\r\n\t\tisFinalized = true;\r\n\r\n\t\tif (tokenHolder.crowdsaleGoalReached()) {\r\n\t\t\t// tokenHolder.close();\r\n\t\t\trefundVault.close();\r\n\r\n\t\t\t// referralRefundVault.close();\r\n\t\t}\r\n/* \t\telse {\r\n\t\t\ttokenHolder.enableRefunds();\r\n\t\t\trefundVault.enableRefunds();\r\n\r\n\t\t\treferralRefundVault.enableRefunds();\r\n\t\t} */\r\n\t}\r\n\r\n\t// Add referral partner\r\n\tfunction addReferralCode(uint code, address partner, uint bonusPercent) onlyOwner returns(bool) { //99999\r\n\t\trequire(bonusPercent > 0 && bonusPercent < 100);\r\n\t\trequire(partner != 0x0);\r\n\t\trequire(code >= 10000 && code <= 99999); // 5\r\n\r\n\t\tReferralMapCodePartner[code] = partner;\r\n\t\tReferralMapPartnerBonus[partner] = bonusPercent;\r\n\r\n\t\treturn true;\r\n\t}\r\n\r\n\t// Set referral revenue rate\r\n\tfunction setReferralRevenueRate(uint _rate) onlyOwner {\r\n\t\trequire(_rate > 0);\r\n\t\treferralRevenueRate = _rate;\r\n\t}\r\n}",
  "sourcePath": "C:\\OpenServer\\domains\\smart_contracts\\sale\\contracts\\Cryptosale.sol",
  "compiler": {
    "name": "solc",
    "version": "0.4.18+commit.9cf6e910.Emscripten.clang"
  },
  "schemaVersion": "1.0.1",
  "updatedAt": "2017-11-08T10:56:07.420Z"
}