{
  "contractName": "CryptosaleRefundVault",
  "abi": [
    {
      "constant": true,
      "inputs": [],
      "name": "getBalance",
      "outputs": [
        {
          "name": "",
          "type": "uint256"
        }
      ],
      "payable": false,
      "stateMutability": "view",
      "type": "function"
    },
    {
      "constant": true,
      "inputs": [],
      "name": "tokenHolder",
      "outputs": [
        {
          "name": "",
          "type": "address"
        }
      ],
      "payable": false,
      "stateMutability": "view",
      "type": "function"
    },
    {
      "constant": false,
      "inputs": [],
      "name": "close",
      "outputs": [],
      "payable": false,
      "stateMutability": "nonpayable",
      "type": "function"
    },
    {
      "constant": true,
      "inputs": [],
      "name": "wallet",
      "outputs": [
        {
          "name": "",
          "type": "address"
        }
      ],
      "payable": false,
      "stateMutability": "view",
      "type": "function"
    },
    {
      "constant": true,
      "inputs": [],
      "name": "owner",
      "outputs": [
        {
          "name": "",
          "type": "address"
        }
      ],
      "payable": false,
      "stateMutability": "view",
      "type": "function"
    },
    {
      "constant": false,
      "inputs": [
        {
          "name": "investor",
          "type": "address"
        }
      ],
      "name": "claimRefund",
      "outputs": [],
      "payable": false,
      "stateMutability": "nonpayable",
      "type": "function"
    },
    {
      "constant": true,
      "inputs": [
        {
          "name": "",
          "type": "address"
        }
      ],
      "name": "deposited",
      "outputs": [
        {
          "name": "",
          "type": "uint256"
        }
      ],
      "payable": false,
      "stateMutability": "view",
      "type": "function"
    },
    {
      "constant": false,
      "inputs": [
        {
          "name": "investor",
          "type": "address"
        }
      ],
      "name": "forwardFunds",
      "outputs": [],
      "payable": true,
      "stateMutability": "payable",
      "type": "function"
    },
    {
      "constant": false,
      "inputs": [
        {
          "name": "newOwner",
          "type": "address"
        }
      ],
      "name": "transferOwnership",
      "outputs": [],
      "payable": false,
      "stateMutability": "nonpayable",
      "type": "function"
    },
    {
      "inputs": [
        {
          "name": "_tokenHolder",
          "type": "address"
        },
        {
          "name": "_wallet",
          "type": "address"
        }
      ],
      "payable": false,
      "stateMutability": "nonpayable",
      "type": "constructor"
    },
    {
      "anonymous": false,
      "inputs": [
        {
          "indexed": true,
          "name": "beneficiary",
          "type": "address"
        },
        {
          "indexed": false,
          "name": "weiAmount",
          "type": "uint256"
        }
      ],
      "name": "Refunded",
      "type": "event"
    },
    {
      "anonymous": false,
      "inputs": [
        {
          "indexed": true,
          "name": "previousOwner",
          "type": "address"
        },
        {
          "indexed": true,
          "name": "newOwner",
          "type": "address"
        }
      ],
      "name": "OwnershipTransferred",
      "type": "event"
    }
  ],
  "bytecode": "0x6060604052341561000f57600080fd5b604051604080610641833981016040528080519190602001805160008054600160a060020a03191633600160a060020a039081169190911790915590925082161515905061005c57600080fd5b60018054600160a060020a03928316600160a060020a031991821617909155600380549390921692169190911790556105a78061009a6000396000f30060606040526004361061007f5763ffffffff60e060020a60003504166312065fe08114610084578063420a83e7146100a957806343d726d6146100d8578063521eb273146100ed5780638da5cb5b14610100578063bffa55d514610113578063cb13cddb14610132578063d1aea54314610151578063f2fde38b14610165575b600080fd5b341561008f57600080fd5b610097610184565b60405190815260200160405180910390f35b34156100b457600080fd5b6100bc610192565b604051600160a060020a03909116815260200160405180910390f35b34156100e357600080fd5b6100eb6101a1565b005b34156100f857600080fd5b6100bc6101f7565b341561010b57600080fd5b6100bc610206565b341561011e57600080fd5b6100eb600160a060020a0360043516610215565b341561013d57600080fd5b610097600160a060020a03600435166103b6565b6100eb600160a060020a03600435166103c8565b341561017057600080fd5b6100eb600160a060020a03600435166104ca565b600160a060020a0330163190565b600354600160a060020a031681565b60005433600160a060020a039081169116146101bc57600080fd5b600154600160a060020a039081169030163180156108fc0290604051600060405180830381858888f1935050505015156101f557600080fd5b565b600154600160a060020a031681565b600054600160a060020a031681565b6000805433600160a060020a0390811691161461023157600080fd5b600354600160a060020a031663213294cd6000604051602001526040518163ffffffff1660e060020a028152600401602060405180830381600087803b151561027957600080fd5b6102c65a03f1151561028a57600080fd5b5050506040518051905080156103005750600354600160a060020a03166350d4a2b96000604051602001526040518163ffffffff1660e060020a028152600401602060405180830381600087803b15156102e357600080fd5b6102c65a03f115156102f457600080fd5b50505060405180519050155b151561030b57600080fd5b50600160a060020a03811660009081526002602052604081205490811161033157600080fd5b600160a060020a0382166000818152600260205260408082209190915582156108fc0290839051600060405180830381858888f19350505050151561037557600080fd5b81600160a060020a03167fd7dee2702d63ad89917b6a4da9981c90c4d24f8c2bdfd64c604ecae57d8d06518260405190815260200160405180910390a25050565b60026020526000908152604090205481565b60005433600160a060020a039081169116146103e357600080fd5b600354600160a060020a03166350d4a2b96000604051602001526040518163ffffffff1660e060020a028152600401602060405180830381600087803b151561042b57600080fd5b6102c65a03f1151561043c57600080fd5b505050604051805190501561048457600154600160a060020a03163480156108fc0290604051600060405180830381858888f19350505050151561047f57600080fd5b6104c7565b600160a060020a0381166000908152600260205260409020546104ad903463ffffffff61056516565b600160a060020a0382166000908152600260205260409020555b50565b60005433600160a060020a039081169116146104e557600080fd5b600160a060020a03811615156104fa57600080fd5b600054600160a060020a0380831691167f8be0079c531659141344cd1fd0a4f28419497f9722a3daafe3b4186f6b6457e060405160405180910390a36000805473ffffffffffffffffffffffffffffffffffffffff1916600160a060020a0392909216919091179055565b60008282018381101561057457fe5b93925050505600a165627a7a72305820824052b9b744a0583c7915177f1c3699eec37a3858207f4417eab963155f6fdb0029",
  "source": "pragma solidity ^0.4.16;\r\n\r\nimport \"./base/ownership/Ownable.sol\";\r\nimport \"./base/math/SafeMath.sol\";\r\n\r\n// import \"./refundVaultProvider.sol\";\r\nimport \"./TokenHolder.sol\";\r\n\r\n/**\r\n * Storage contract of revenue cryptosale\r\n */\r\ncontract CryptosaleRefundVault is Ownable { //, RefundVaultProvider\r\n    using SafeMath for uint256;\r\n\r\n    event Refunded(address indexed beneficiary, uint weiAmount);\r\n\r\n\t// Cryptosale wallet for getting revenue\r\n\taddress public wallet;\r\n\r\n\tmapping (address => uint256) public deposited;\r\n\r\n\t// This contract knows that who how much bought tokens\r\n    TokenHolder public tokenHolder;\r\n\r\n\t// Constructor function\r\n\tfunction CryptosaleRefundVault(address _tokenHolder, address _wallet) {\r\n\t\trequire(_wallet != 0x0);\r\n\r\n        wallet = _wallet;\r\n        tokenHolder = TokenHolder(_tokenHolder);\r\n\t}\r\n\r\n\t/**\r\n\t * only owner methods\r\n\t */\r\n\r\n\t// Close cryptosale refund\r\n    function close() onlyOwner public {\r\n        // super.close();\r\n        wallet.transfer(this.balance); // send revenue to cryptosale\r\n    }\r\n    \r\n    function claimRefund(address investor) onlyOwner public {\r\n        // require(state == State.Refunding);\r\n        require(tokenHolder.crowdsaleHasEnded() && !tokenHolder.crowdsaleGoalReached());\r\n        uint depositedValue = deposited[investor];\r\n        require(depositedValue > 0);\r\n\r\n        deposited[investor] = 0;\r\n        investor.transfer(depositedValue); // refund investor\r\n        Refunded(investor, depositedValue);\r\n    }\r\n\r\n    function forwardFunds(address investor) onlyOwner payable public {\r\n        // require(state == State.Active);\r\n        \r\n        if (tokenHolder.crowdsaleGoalReached()) {\r\n        \twallet.transfer(msg.value);\r\n    \t} else {\r\n        \tdeposited[investor] = deposited[investor].add(msg.value);\r\n    \t}\r\n    }\r\n\r\n    /**\r\n\t * optional methods\r\n\t */\r\n\r\n\t// Get contract balance\r\n\tfunction getBalance() public constant returns(uint) {\r\n\t\treturn this.balance;\r\n\t}\r\n}",
  "sourcePath": "C:\\OpenServer\\domains\\smart_contracts\\sale\\contracts\\CryptosaleRefundVault.sol",
  "compiler": {
    "name": "solc",
    "version": "0.4.18+commit.9cf6e910.Emscripten.clang"
  },
  "schemaVersion": "1.0.1",
  "updatedAt": "2017-11-04T12:32:10.725Z"
}