{
  "contractName": "ExampleCrowdsale",
  "abi": [
    {
      "constant": true,
      "inputs": [],
      "name": "rate",
      "outputs": [
        {
          "name": "",
          "type": "uint256"
        }
      ],
      "payable": false,
      "stateMutability": "view",
      "type": "function"
    },
    {
      "constant": true,
      "inputs": [],
      "name": "endTime",
      "outputs": [
        {
          "name": "",
          "type": "uint256"
        }
      ],
      "payable": false,
      "stateMutability": "view",
      "type": "function"
    },
    {
      "constant": true,
      "inputs": [],
      "name": "goal",
      "outputs": [
        {
          "name": "",
          "type": "uint256"
        }
      ],
      "payable": false,
      "stateMutability": "view",
      "type": "function"
    },
    {
      "constant": true,
      "inputs": [],
      "name": "weiRaised",
      "outputs": [
        {
          "name": "",
          "type": "uint256"
        }
      ],
      "payable": false,
      "stateMutability": "view",
      "type": "function"
    },
    {
      "constant": true,
      "inputs": [],
      "name": "hasStarted",
      "outputs": [
        {
          "name": "",
          "type": "bool"
        }
      ],
      "payable": false,
      "stateMutability": "view",
      "type": "function"
    },
    {
      "constant": false,
      "inputs": [],
      "name": "finalize",
      "outputs": [],
      "payable": false,
      "stateMutability": "nonpayable",
      "type": "function"
    },
    {
      "constant": true,
      "inputs": [],
      "name": "wallet",
      "outputs": [
        {
          "name": "",
          "type": "address"
        }
      ],
      "payable": false,
      "stateMutability": "view",
      "type": "function"
    },
    {
      "constant": true,
      "inputs": [],
      "name": "startTime",
      "outputs": [
        {
          "name": "",
          "type": "uint256"
        }
      ],
      "payable": false,
      "stateMutability": "view",
      "type": "function"
    },
    {
      "constant": true,
      "inputs": [],
      "name": "goalReached",
      "outputs": [
        {
          "name": "",
          "type": "bool"
        }
      ],
      "payable": false,
      "stateMutability": "view",
      "type": "function"
    },
    {
      "constant": true,
      "inputs": [],
      "name": "isFinalized",
      "outputs": [
        {
          "name": "",
          "type": "bool"
        }
      ],
      "payable": false,
      "stateMutability": "view",
      "type": "function"
    },
    {
      "constant": true,
      "inputs": [],
      "name": "owner",
      "outputs": [
        {
          "name": "",
          "type": "address"
        }
      ],
      "payable": false,
      "stateMutability": "view",
      "type": "function"
    },
    {
      "constant": true,
      "inputs": [],
      "name": "rateProvider",
      "outputs": [
        {
          "name": "",
          "type": "address"
        }
      ],
      "payable": false,
      "stateMutability": "view",
      "type": "function"
    },
    {
      "constant": false,
      "inputs": [],
      "name": "claimRefund",
      "outputs": [],
      "payable": false,
      "stateMutability": "nonpayable",
      "type": "function"
    },
    {
      "constant": true,
      "inputs": [
        {
          "name": "_beneficiary",
          "type": "address"
        }
      ],
      "name": "getDepositedAmount",
      "outputs": [
        {
          "name": "",
          "type": "uint256"
        }
      ],
      "payable": false,
      "stateMutability": "view",
      "type": "function"
    },
    {
      "constant": true,
      "inputs": [],
      "name": "hasEnded",
      "outputs": [
        {
          "name": "",
          "type": "bool"
        }
      ],
      "payable": false,
      "stateMutability": "view",
      "type": "function"
    },
    {
      "constant": false,
      "inputs": [
        {
          "name": "newOwner",
          "type": "address"
        }
      ],
      "name": "transferOwnership",
      "outputs": [],
      "payable": false,
      "stateMutability": "nonpayable",
      "type": "function"
    },
    {
      "constant": true,
      "inputs": [],
      "name": "hardCap",
      "outputs": [
        {
          "name": "",
          "type": "uint256"
        }
      ],
      "payable": false,
      "stateMutability": "view",
      "type": "function"
    },
    {
      "constant": true,
      "inputs": [],
      "name": "vault",
      "outputs": [
        {
          "name": "",
          "type": "address"
        }
      ],
      "payable": false,
      "stateMutability": "view",
      "type": "function"
    },
    {
      "constant": true,
      "inputs": [],
      "name": "token",
      "outputs": [
        {
          "name": "",
          "type": "address"
        }
      ],
      "payable": false,
      "stateMutability": "view",
      "type": "function"
    },
    {
      "inputs": [
        {
          "name": "_startTime",
          "type": "uint32"
        },
        {
          "name": "_endTime",
          "type": "uint32"
        },
        {
          "name": "_softCapWei",
          "type": "uint256"
        },
        {
          "name": "_hardCapTokens",
          "type": "uint256"
        },
        {
          "name": "_wallet",
          "type": "address"
        },
        {
          "name": "_token",
          "type": "address"
        },
        {
          "name": "_tokenHolder",
          "type": "address"
        }
      ],
      "payable": false,
      "stateMutability": "nonpayable",
      "type": "constructor"
    },
    {
      "payable": true,
      "stateMutability": "payable",
      "type": "fallback"
    },
    {
      "anonymous": false,
      "inputs": [],
      "name": "Finalized",
      "type": "event"
    },
    {
      "anonymous": false,
      "inputs": [
        {
          "indexed": true,
          "name": "previousOwner",
          "type": "address"
        },
        {
          "indexed": true,
          "name": "newOwner",
          "type": "address"
        }
      ],
      "name": "OwnershipTransferred",
      "type": "event"
    },
    {
      "anonymous": false,
      "inputs": [
        {
          "indexed": true,
          "name": "purchaser",
          "type": "address"
        },
        {
          "indexed": true,
          "name": "beneficiary",
          "type": "address"
        },
        {
          "indexed": false,
          "name": "value",
          "type": "uint256"
        },
        {
          "indexed": false,
          "name": "amount",
          "type": "uint256"
        }
      ],
      "name": "TokenPurchase",
      "type": "event"
    }
  ],
  "bytecode": "0x60606040526007805460a060020a60ff0219169055341561001f57600080fd5b60405160e0806115c383398101604052808051919060200180519190602001805191906020018051919060200180519190602001805191906020018051915060009050878760f0670de0b6b3a7640000880287878b86868686868663ffffffff808716908616858585854286101561009657600080fd5b858510156100a357600080fd5b600084116100b057600080fd5b600160a060020a03821615156100c557600080fd5b60008054600160a060020a0319908116600160a060020a039384161782556001979097556002959095556004939093556006919091556003805485169183169190911790556007805490931633909116179091558711955061012c94505050505057600080fd5b826101356101ef565b600160a060020a039091168152602001604051809103906000f080151561015b57600080fd5b60098054600160a060020a031916600160a060020a0392831617905560089190915588161515955061019294505050505057600080fd5b8161019b6101ff565b600160a060020a039091168152602001604051809103906000f08015156101c157600080fd5b600a8054600160a060020a031916600160a060020a03929092169190911790555061020f9650505050505050565b60405161060c80610d0a83390190565b6040516102ad8061131683390190565b610aec8061021e6000396000f3006060604052600436106100ed5763ffffffff60e060020a6000350416632c4e722e81146100f95780633197cbb61461011e57806340193883146101315780634042b66f1461014457806344691f7e146101575780634bb278f31461017e578063521eb2731461019157806378e97925146101c05780637d3d6522146101d35780638d4e4083146101e65780638da5cb5b146101f9578063949db6581461020c578063b5545a3c1461021f578063e9081ec714610232578063ecb70fb714610251578063f2fde38b14610264578063fb86a40414610283578063fbfa77cf14610296578063fc0c546a146102a9575b6100f733346102bc565b005b341561010457600080fd5b61010c6104f3565b60405190815260200160405180910390f35b341561012957600080fd5b61010c6104f9565b341561013c57600080fd5b61010c6104ff565b341561014f57600080fd5b61010c610505565b341561016257600080fd5b61016a61050b565b604051901515815260200160405180910390f35b341561018957600080fd5b6100f7610514565b341561019c57600080fd5b6101a46105b3565b604051600160a060020a03909116815260200160405180910390f35b34156101cb57600080fd5b61010c6105c2565b34156101de57600080fd5b61016a6105c8565b34156101f157600080fd5b61016a6105d3565b341561020457600080fd5b6101a46105e3565b341561021757600080fd5b6101a46105f2565b341561022a57600080fd5b6100f7610601565b341561023d57600080fd5b61010c600160a060020a0360043516610691565b341561025c57600080fd5b61016a61070c565b341561026f57600080fd5b6100f7600160a060020a0360043516610799565b341561028e57600080fd5b61010c610834565b34156102a157600080fd5b6101a461083a565b34156102b457600080fd5b6101a4610849565b60008080808080600160a060020a03881615156102d857600080fd5b60008054600160a060020a0316906318160ddd90604051602001526040518163ffffffff1660e060020a028152600401602060405180830381600087803b151561032157600080fd5b6102c65a03f1151561033257600080fd5b505050604051805190509550610346610858565b94506103538786886108dd565b151561035e57600080fd5b61036e878663ffffffff61093516565b60065490945060009350610388858863ffffffff61096016565b11156103d0576006546103a1908763ffffffff61096f16565b91506103b3828663ffffffff61098116565b90506103c5818663ffffffff61093516565b935080870392508096505b6005546103e3908863ffffffff61096016565b60055560008054600160a060020a0316906340c10f19908a9087906040516020015260405160e060020a63ffffffff8516028152600160a060020a0390921660048301526024820152604401602060405180830381600087803b151561044857600080fd5b6102c65a03f1151561045957600080fd5b50505060405180515050600160a060020a038816807f623b3804fa71d67900d064613da8f94b9617215ee90799290593e1745087ad18898760405191825260208201526040908101905180910390a382156104df57600160a060020a03331683156108fc0284604051600060405180830381858888f1935050505015156104df57600080fd5b6104e98888610998565b5050505050505050565b60045481565b60025481565b60085481565b60055481565b60015442101590565b60075433600160a060020a0390811691161461052f57600080fd5b60075460a060020a900460ff161561054657600080fd5b61054e61070c565b151561055957600080fd5b610561610a01565b7f6823b073d48d6e3a7d385eeb601452d680e74bb46afe3255a7d778f3a9b1768160405160405180910390a16007805474ff0000000000000000000000000000000000000000191660a060020a179055565b600354600160a060020a031681565b60015481565b600854600554101590565b60075460a060020a900460ff1681565b600754600160a060020a031681565b600a54600160a060020a031681565b60075460a060020a900460ff16151561061957600080fd5b6106216105c8565b1561062b57600080fd5b600954600160a060020a031663fa89401a3360405160e060020a63ffffffff8416028152600160a060020a039091166004820152602401600060405180830381600087803b151561067b57600080fd5b6102c65a03f1151561068c57600080fd5b505050565b600954600090600160a060020a031663cb13cddb83836040516020015260405160e060020a63ffffffff8416028152600160a060020a039091166004820152602401602060405180830381600087803b15156106ec57600080fd5b6102c65a03f115156106fd57600080fd5b50505060405180519392505050565b6000600254421180610794575060045460065461072e9163ffffffff61096f16565b60008054600160a060020a0316906318160ddd90604051602001526040518163ffffffff1660e060020a028152600401602060405180830381600087803b151561077757600080fd5b6102c65a03f1151561078857600080fd5b50505060405180519050115b905090565b60075433600160a060020a039081169116146107b457600080fd5b600160a060020a03811615156107c957600080fd5b600754600160a060020a0380831691167f8be0079c531659141344cd1fd0a4f28419497f9722a3daafe3b4186f6b6457e060405160405180910390a36007805473ffffffffffffffffffffffffffffffffffffffff1916600160a060020a0392909216919091179055565b60065481565b600954600160a060020a031681565b600054600160a060020a031681565b600a54600454600091600160a060020a03169063886ef644903390846040516020015260405160e060020a63ffffffff8516028152600160a060020a0390921660048301526024820152604401602060405180830381600087803b15156108be57600080fd5b6102c65a03f115156108cf57600080fd5b505050604051805191505090565b60008060008060015442101580156108f757506002544211155b6006549093508715159250610912908763ffffffff61096f16565b85111590508280156109215750815b801561092a5750805b979650505050505050565b6000828202831580610951575082848281151561094e57fe5b04145b151561095957fe5b9392505050565b60008282018381101561095957fe5b60008282111561097b57fe5b50900390565b600080828481151561098f57fe5b04949350505050565b600954600160a060020a031663f340fa01828460405160e060020a63ffffffff8516028152600160a060020a0390911660048201526024016000604051808303818588803b15156109e857600080fd5b6125ee5a03f115156109f957600080fd5b505050505050565b610a096105c8565b15610a6657600954600160a060020a03166343d726d66040518163ffffffff1660e060020a028152600401600060405180830381600087803b1515610a4d57600080fd5b6102c65a03f11515610a5e57600080fd5b505050610aba565b600954600160a060020a0316638c52dc416040518163ffffffff1660e060020a028152600401600060405180830381600087803b1515610aa557600080fd5b6102c65a03f11515610ab657600080fd5b5050505b610abe5b5600a165627a7a72305820d60f651b435c5c5d887d8db7fd48c1d11c00d0e2132390e086a76d88d7a284c900296060604052341561000f57600080fd5b60405160208061060c8339810160405280805160008054600160a060020a03191633600160a060020a039081169190911790915590925082161515905061005557600080fd5b60028054600160a060020a031916600160a060020a03929092169190911760a060020a60ff021916905561057e8061008e6000396000f3006060604052600436106100985763ffffffff7c010000000000000000000000000000000000000000000000000000000060003504166343d726d6811461009d578063521eb273146100b25780638c52dc41146100e15780638da5cb5b146100f4578063c19d93fb14610107578063cb13cddb1461013e578063f2fde38b1461016f578063f340fa011461018e578063fa89401a146101a2575b600080fd5b34156100a857600080fd5b6100b06101c1565b005b34156100bd57600080fd5b6100c561029c565b604051600160a060020a03909116815260200160405180910390f35b34156100ec57600080fd5b6100b06102ab565b34156100ff57600080fd5b6100c561033c565b341561011257600080fd5b61011a61034b565b6040518082600281111561012a57fe5b60ff16815260200191505060405180910390f35b341561014957600080fd5b61015d600160a060020a036004351661035b565b60405190815260200160405180910390f35b341561017a57600080fd5b6100b0600160a060020a036004351661036d565b6100b0600160a060020a0360043516610408565b34156101ad57600080fd5b6100b0600160a060020a036004351661048c565b60005433600160a060020a039081169116146101dc57600080fd5b60006002805460a060020a900460ff16908111156101f657fe5b1461020057600080fd5b6002805474ff00000000000000000000000000000000000000001916740200000000000000000000000000000000000000001790557f1cdde67b72a90f19919ac732a437ac2f7a10fc128d28c2a6e525d89ce5cd9d3a60405160405180910390a1600254600160a060020a039081169030163180156108fc0290604051600060405180830381858888f19350505050151561029a57600080fd5b565b600254600160a060020a031681565b60005433600160a060020a039081169116146102c657600080fd5b60006002805460a060020a900460ff16908111156102e057fe5b146102ea57600080fd5b6002805474ff0000000000000000000000000000000000000000191660a060020a1790557f599d8e5a83cffb867d051598c4d70e805d59802d8081c1c7d6dffc5b6aca2b8960405160405180910390a1565b600054600160a060020a031681565b60025460a060020a900460ff1681565b60016020526000908152604090205481565b60005433600160a060020a0390811691161461038857600080fd5b600160a060020a038116151561039d57600080fd5b600054600160a060020a0380831691167f8be0079c531659141344cd1fd0a4f28419497f9722a3daafe3b4186f6b6457e060405160405180910390a36000805473ffffffffffffffffffffffffffffffffffffffff1916600160a060020a0392909216919091179055565b60005433600160a060020a0390811691161461042357600080fd5b60006002805460a060020a900460ff169081111561043d57fe5b1461044757600080fd5b600160a060020a038116600090815260016020526040902054610470903463ffffffff61053c16565b600160a060020a03909116600090815260016020526040902055565b600060016002805460a060020a900460ff16908111156104a857fe5b146104b257600080fd5b50600160a060020a038116600081815260016020526040808220805492905590919082156108fc0290839051600060405180830381858888f1935050505015156104fb57600080fd5b81600160a060020a03167fd7dee2702d63ad89917b6a4da9981c90c4d24f8c2bdfd64c604ecae57d8d06518260405190815260200160405180910390a25050565b60008282018381101561054b57fe5b93925050505600a165627a7a72305820c5e19baa94be2d2213cfc939912fb1fc94875b61dbf880ced31512942109f1b200296060604052341561000f57600080fd5b6040516020806102ad8339810160405280805160008054600160a060020a03338116600160a060020a03199283161790925560018054929093169116179055505061024e8061005f6000396000f3006060604052600436106100615763ffffffff7c0100000000000000000000000000000000000000000000000000000000600035041663420a83e78114610066578063886ef644146100955780638da5cb5b146100c9578063f2fde38b146100dc575b600080fd5b341561007157600080fd5b6100796100fd565b604051600160a060020a03909116815260200160405180910390f35b34156100a057600080fd5b6100b7600160a060020a036004351660243561010c565b60405190815260200160405180910390f35b34156100d457600080fd5b610079610152565b34156100e757600080fd5b6100fb600160a060020a0360043516610161565b005b600154600160a060020a031681565b6001546000908290600160a060020a038581169116141561014b5761014861013b82600a63ffffffff6101fc16565b829063ffffffff61021316565b90505b9392505050565b600054600160a060020a031681565b60005433600160a060020a0390811691161461017c57600080fd5b600160a060020a038116151561019157600080fd5b600054600160a060020a0380831691167f8be0079c531659141344cd1fd0a4f28419497f9722a3daafe3b4186f6b6457e060405160405180910390a36000805473ffffffffffffffffffffffffffffffffffffffff1916600160a060020a0392909216919091179055565b600080828481151561020a57fe5b04949350505050565b60008282018381101561014b57fe00a165627a7a723058200efae9ea3ea0c76773afcb30097b436ab1d5344aaf729b7f1d6017a18e87cb6a0029",
  "source": "pragma solidity ^0.4.16;\r\n\r\nimport \"./base/crowdsale/RefundableCrowdsale.sol\";\r\n\r\nimport \"./Constants.sol\";\r\nimport \"./Cryptosale.sol\";\r\nimport \"./RateProvider.sol\";\r\n\r\n// delete\r\n// import \"./FreezingStorage.sol\";\r\n// import \"./ExampleToken.sol\";\r\n\r\n/**\r\n * Example crowdsale contract\r\n * Contract cryptosale can buy sale tokens from crowdsale (rateProvider logic)\r\n */\r\ncontract ExampleCrowdsale is Constants, RefundableCrowdsale {\r\n\tRateProvider public rateProvider;\r\n\r\n\tfunction ExampleCrowdsale (\r\n\t\tuint32 _startTime,\r\n\t\tuint32 _endTime,\r\n\t\t// uint _rate,\r\n\t\tuint _softCapWei, // 0.01\r\n\t\tuint _hardCapTokens, // 3\r\n\t\taddress _wallet,\r\n\t\taddress _token,\r\n\t\taddress _tokenHolder\r\n\t) RefundableCrowdsale(\r\n        _startTime,\r\n        _endTime, \r\n        240,\r\n        _hardCapTokens * TOKEN_DECIMAL_MULTIPLIER,\r\n        _wallet,\r\n        _token,\r\n        _softCapWei // goal\r\n\t) {\r\n\t\trequire(_tokenHolder != 0x0);\r\n\r\n\t\tRateProvider provider = new RateProvider(_tokenHolder);\r\n        // provider.transferOwnership(owner);\r\n        rateProvider = provider;\r\n\t}\r\n    \r\n\t/**\r\n     * internal methods\r\n     */\r\n\r\n\t// Override getRate to integrate with rate provider.\r\n    function getRate() internal constant returns(uint) {\r\n\t\treturn rateProvider.getRate(msg.sender, rate);\r\n    }\r\n\r\n    /**\r\n     * optional methods\r\n     */\r\n\r\n    function getDepositedAmount(address _beneficiary) public constant returns(uint) {\r\n    \treturn vault.deposited(_beneficiary);\r\n    }\r\n}",
  "sourcePath": "C:\\OpenServer\\domains\\smart_contracts\\sale\\contracts\\ExampleCrowdsale.sol",
  "compiler": {
    "name": "solc",
    "version": "0.4.18+commit.9cf6e910.Emscripten.clang"
  },
  "schemaVersion": "1.0.1",
  "updatedAt": "2017-11-08T10:56:07.393Z"
}