{
  "contractName": "ExampleToken",
  "abi": [
    {
      "constant": true,
      "inputs": [],
      "name": "mintingFinished",
      "outputs": [
        {
          "name": "",
          "type": "bool"
        }
      ],
      "payable": false,
      "stateMutability": "view",
      "type": "function"
    },
    {
      "constant": true,
      "inputs": [],
      "name": "name",
      "outputs": [
        {
          "name": "_name",
          "type": "string"
        }
      ],
      "payable": false,
      "stateMutability": "view",
      "type": "function"
    },
    {
      "constant": false,
      "inputs": [
        {
          "name": "_spender",
          "type": "address"
        },
        {
          "name": "_value",
          "type": "uint256"
        }
      ],
      "name": "approve",
      "outputs": [
        {
          "name": "",
          "type": "bool"
        }
      ],
      "payable": false,
      "stateMutability": "nonpayable",
      "type": "function"
    },
    {
      "constant": true,
      "inputs": [],
      "name": "totalSupply",
      "outputs": [
        {
          "name": "",
          "type": "uint256"
        }
      ],
      "payable": false,
      "stateMutability": "view",
      "type": "function"
    },
    {
      "constant": false,
      "inputs": [
        {
          "name": "_from",
          "type": "address"
        },
        {
          "name": "_to",
          "type": "address"
        },
        {
          "name": "_value",
          "type": "uint256"
        }
      ],
      "name": "transferFrom",
      "outputs": [
        {
          "name": "",
          "type": "bool"
        }
      ],
      "payable": false,
      "stateMutability": "nonpayable",
      "type": "function"
    },
    {
      "constant": true,
      "inputs": [],
      "name": "decimals",
      "outputs": [
        {
          "name": "_decimals",
          "type": "uint8"
        }
      ],
      "payable": false,
      "stateMutability": "view",
      "type": "function"
    },
    {
      "constant": true,
      "inputs": [],
      "name": "FREEZING_STORAGE",
      "outputs": [
        {
          "name": "",
          "type": "address"
        }
      ],
      "payable": false,
      "stateMutability": "view",
      "type": "function"
    },
    {
      "constant": false,
      "inputs": [
        {
          "name": "_to",
          "type": "address"
        },
        {
          "name": "_amount",
          "type": "uint256"
        }
      ],
      "name": "mint",
      "outputs": [
        {
          "name": "",
          "type": "bool"
        }
      ],
      "payable": false,
      "stateMutability": "nonpayable",
      "type": "function"
    },
    {
      "constant": false,
      "inputs": [
        {
          "name": "_spender",
          "type": "address"
        },
        {
          "name": "_subtractedValue",
          "type": "uint256"
        }
      ],
      "name": "decreaseApproval",
      "outputs": [
        {
          "name": "success",
          "type": "bool"
        }
      ],
      "payable": false,
      "stateMutability": "nonpayable",
      "type": "function"
    },
    {
      "constant": true,
      "inputs": [
        {
          "name": "_owner",
          "type": "address"
        }
      ],
      "name": "balanceOf",
      "outputs": [
        {
          "name": "balance",
          "type": "uint256"
        }
      ],
      "payable": false,
      "stateMutability": "view",
      "type": "function"
    },
    {
      "constant": false,
      "inputs": [],
      "name": "finishMinting",
      "outputs": [
        {
          "name": "",
          "type": "bool"
        }
      ],
      "payable": false,
      "stateMutability": "nonpayable",
      "type": "function"
    },
    {
      "constant": true,
      "inputs": [],
      "name": "owner",
      "outputs": [
        {
          "name": "",
          "type": "address"
        }
      ],
      "payable": false,
      "stateMutability": "view",
      "type": "function"
    },
    {
      "constant": true,
      "inputs": [],
      "name": "symbol",
      "outputs": [
        {
          "name": "_symbol",
          "type": "string"
        }
      ],
      "payable": false,
      "stateMutability": "view",
      "type": "function"
    },
    {
      "constant": false,
      "inputs": [
        {
          "name": "_to",
          "type": "address"
        },
        {
          "name": "_value",
          "type": "uint256"
        }
      ],
      "name": "transfer",
      "outputs": [
        {
          "name": "",
          "type": "bool"
        }
      ],
      "payable": false,
      "stateMutability": "nonpayable",
      "type": "function"
    },
    {
      "constant": false,
      "inputs": [
        {
          "name": "_spender",
          "type": "address"
        },
        {
          "name": "_addedValue",
          "type": "uint256"
        }
      ],
      "name": "increaseApproval",
      "outputs": [
        {
          "name": "success",
          "type": "bool"
        }
      ],
      "payable": false,
      "stateMutability": "nonpayable",
      "type": "function"
    },
    {
      "constant": true,
      "inputs": [
        {
          "name": "_owner",
          "type": "address"
        },
        {
          "name": "_spender",
          "type": "address"
        }
      ],
      "name": "allowance",
      "outputs": [
        {
          "name": "remaining",
          "type": "uint256"
        }
      ],
      "payable": false,
      "stateMutability": "view",
      "type": "function"
    },
    {
      "constant": false,
      "inputs": [
        {
          "name": "newOwner",
          "type": "address"
        }
      ],
      "name": "transferOwnership",
      "outputs": [],
      "payable": false,
      "stateMutability": "nonpayable",
      "type": "function"
    },
    {
      "inputs": [
        {
          "name": "_freezingStorage",
          "type": "address"
        }
      ],
      "payable": false,
      "stateMutability": "nonpayable",
      "type": "constructor"
    },
    {
      "anonymous": false,
      "inputs": [
        {
          "indexed": true,
          "name": "to",
          "type": "address"
        },
        {
          "indexed": false,
          "name": "amount",
          "type": "uint256"
        }
      ],
      "name": "Mint",
      "type": "event"
    },
    {
      "anonymous": false,
      "inputs": [],
      "name": "MintFinished",
      "type": "event"
    },
    {
      "anonymous": false,
      "inputs": [
        {
          "indexed": true,
          "name": "previousOwner",
          "type": "address"
        },
        {
          "indexed": true,
          "name": "newOwner",
          "type": "address"
        }
      ],
      "name": "OwnershipTransferred",
      "type": "event"
    },
    {
      "anonymous": false,
      "inputs": [
        {
          "indexed": true,
          "name": "owner",
          "type": "address"
        },
        {
          "indexed": true,
          "name": "spender",
          "type": "address"
        },
        {
          "indexed": false,
          "name": "value",
          "type": "uint256"
        }
      ],
      "name": "Approval",
      "type": "event"
    },
    {
      "anonymous": false,
      "inputs": [
        {
          "indexed": true,
          "name": "from",
          "type": "address"
        },
        {
          "indexed": true,
          "name": "to",
          "type": "address"
        },
        {
          "indexed": false,
          "name": "value",
          "type": "uint256"
        }
      ],
      "name": "Transfer",
      "type": "event"
    }
  ],
  "bytecode": "0x60606040526003805460a060020a60ff0219169055341561001f57600080fd5b604051602080610dce8339810160405280805160038054600160a060020a03191633600160a060020a039081169190911790915590925082161515905061006557600080fd5b60048054600160a060020a031916600160a060020a0383811691909117918290556100a69116670de0b6b3a76400006401000000006100ad81026105fd1704565b50506101ef565b60035460009033600160a060020a039081169116146100cb57600080fd5b60035474010000000000000000000000000000000000000000900460ff16156100f357600080fd5b60005461010d9083640100000000610b7c6101d982021704565b6000908155600160a060020a03841681526001602052604090205461013f9083640100000000610b7c6101d982021704565b600160a060020a0384166000818152600160205260409081902092909255907f0f6798a560793a54c3bcfe86a93cde1e73087d944c0ea20544137d41213968859084905190815260200160405180910390a282600160a060020a031660007fddf252ad1be2c89b69c2b068fc378daa952ba7f163c4a11628f55a4df523b3ef8460405190815260200160405180910390a350600192915050565b6000828201838110156101e857fe5b9392505050565b610bd0806101fe6000396000f3006060604052600436106100f05763ffffffff7c010000000000000000000000000000000000000000000000000000000060003504166305d2035b81146100f557806306fdde031461011c578063095ea7b3146101a657806318160ddd146101c857806323b872dd146101ed578063313ce5671461021557806333386f8d1461023e57806340c10f191461026d578063661884631461028f57806370a08231146102b15780637d64bcb4146102d05780638da5cb5b146102e357806395d89b41146102f6578063a9059cbb14610309578063d73dd6231461032b578063dd62ed3e1461034d578063f2fde38b14610372575b600080fd5b341561010057600080fd5b610108610393565b604051901515815260200160405180910390f35b341561012757600080fd5b61012f6103b4565b60405160208082528190810183818151815260200191508051906020019080838360005b8381101561016b578082015183820152602001610153565b50505050905090810190601f1680156101985780820380516001836020036101000a031916815260200191505b509250505060405180910390f35b34156101b157600080fd5b610108600160a060020a03600435166024356103f5565b34156101d357600080fd5b6101db610461565b60405190815260200160405180910390f35b34156101f857600080fd5b610108600160a060020a0360043581169060243516604435610467565b341561022057600080fd5b6102286105e9565b60405160ff909116815260200160405180910390f35b341561024957600080fd5b6102516105ee565b604051600160a060020a03909116815260200160405180910390f35b341561027857600080fd5b610108600160a060020a03600435166024356105fd565b341561029a57600080fd5b610108600160a060020a036004351660243561071b565b34156102bc57600080fd5b6101db600160a060020a0360043516610815565b34156102db57600080fd5b610108610830565b34156102ee57600080fd5b6102516108b5565b341561030157600080fd5b61012f6108c4565b341561031457600080fd5b610108600160a060020a0360043516602435610905565b341561033657600080fd5b610108600160a060020a0360043516602435610a00565b341561035857600080fd5b6101db600160a060020a0360043581169060243516610aa4565b341561037d57600080fd5b610391600160a060020a0360043516610acf565b005b60035474010000000000000000000000000000000000000000900460ff1681565b6103bc610b92565b60408051908101604052600d81527f4578616d706c6520546f6b656e000000000000000000000000000000000000006020820152905090565b600160a060020a03338116600081815260026020908152604080832094871680845294909152808220859055909291907f8c5be1e5ebec7d5bd14f71427d1e84f3dd0314c0f7b2291e5b200ac8c7c3b9259085905190815260200160405180910390a350600192915050565b60005481565b6000600160a060020a038316151561047e57600080fd5b600160a060020a0384166000908152600160205260409020548211156104a357600080fd5b600160a060020a03808516600090815260026020908152604080832033909416835292905220548211156104d657600080fd5b600160a060020a0384166000908152600160205260409020546104ff908363ffffffff610b6a16565b600160a060020a038086166000908152600160205260408082209390935590851681522054610534908363ffffffff610b7c16565b600160a060020a0380851660009081526001602090815260408083209490945587831682526002815283822033909316825291909152205461057c908363ffffffff610b6a16565b600160a060020a03808616600081815260026020908152604080832033861684529091529081902093909355908516917fddf252ad1be2c89b69c2b068fc378daa952ba7f163c4a11628f55a4df523b3ef9085905190815260200160405180910390a35060019392505050565b601290565b600454600160a060020a031681565b60035460009033600160a060020a0390811691161461061b57600080fd5b60035474010000000000000000000000000000000000000000900460ff161561064357600080fd5b600054610656908363ffffffff610b7c16565b6000908155600160a060020a038416815260016020526040902054610681908363ffffffff610b7c16565b600160a060020a0384166000818152600160205260409081902092909255907f0f6798a560793a54c3bcfe86a93cde1e73087d944c0ea20544137d41213968859084905190815260200160405180910390a282600160a060020a031660007fddf252ad1be2c89b69c2b068fc378daa952ba7f163c4a11628f55a4df523b3ef8460405190815260200160405180910390a350600192915050565b600160a060020a0333811660009081526002602090815260408083209386168352929052908120548083111561077857600160a060020a0333811660009081526002602090815260408083209388168352929052908120556107af565b610788818463ffffffff610b6a16565b600160a060020a033381166000908152600260209081526040808320938916835292905220555b600160a060020a0333811660008181526002602090815260408083209489168084529490915290819020547f8c5be1e5ebec7d5bd14f71427d1e84f3dd0314c0f7b2291e5b200ac8c7c3b925915190815260200160405180910390a35060019392505050565b600160a060020a031660009081526001602052604090205490565b60035460009033600160a060020a0390811691161461084e57600080fd5b6003805474ff00000000000000000000000000000000000000001916740100000000000000000000000000000000000000001790557fae5184fba832cb2b1f702aca6117b8d265eaf03ad33eb133f19dde0f5920fa0860405160405180910390a150600190565b600354600160a060020a031681565b6108cc610b92565b60408051908101604052600381527f45585400000000000000000000000000000000000000000000000000000000006020820152905090565b6000600160a060020a038316151561091c57600080fd5b600160a060020a03331660009081526001602052604090205482111561094157600080fd5b600160a060020a03331660009081526001602052604090205461096a908363ffffffff610b6a16565b600160a060020a03338116600090815260016020526040808220939093559085168152205461099f908363ffffffff610b7c16565b600160a060020a0380851660008181526001602052604090819020939093559133909116907fddf252ad1be2c89b69c2b068fc378daa952ba7f163c4a11628f55a4df523b3ef9085905190815260200160405180910390a350600192915050565b600160a060020a033381166000908152600260209081526040808320938616835292905290812054610a38908363ffffffff610b7c16565b600160a060020a0333811660008181526002602090815260408083209489168084529490915290819020849055919290917f8c5be1e5ebec7d5bd14f71427d1e84f3dd0314c0f7b2291e5b200ac8c7c3b92591905190815260200160405180910390a350600192915050565b600160a060020a03918216600090815260026020908152604080832093909416825291909152205490565b60035433600160a060020a03908116911614610aea57600080fd5b600160a060020a0381161515610aff57600080fd5b600354600160a060020a0380831691167f8be0079c531659141344cd1fd0a4f28419497f9722a3daafe3b4186f6b6457e060405160405180910390a36003805473ffffffffffffffffffffffffffffffffffffffff1916600160a060020a0392909216919091179055565b600082821115610b7657fe5b50900390565b600082820183811015610b8b57fe5b9392505050565b602060405190810160405260008152905600a165627a7a7230582068c7758b165a948b8c2bd5e1e0cdb5055a3bf58581ca035a4ccdd8588e239c690029",
  "source": "pragma solidity ^0.4.16;\r\n\r\nimport \"./base/token/MintableToken.sol\";\r\nimport \"./base/math/SafeMath.sol\";\r\n\r\nimport \"./Constants.sol\";\r\n\r\n// Token contract\r\ncontract ExampleToken is Constants, MintableToken {\r\n\taddress public FREEZING_STORAGE; //constant\r\n\tuint constant FREEZING_STORAGE_TOKENS = 1 * TOKEN_DECIMAL_MULTIPLIER;\r\n    \r\n    function name() constant public returns (string _name) {\r\n        return \"Example Token\";\r\n    }\r\n\r\n    function symbol() constant public returns (string _symbol) { // EIP-20 Compliance\r\n        return \"EXT\";\r\n    }\r\n\r\n    function decimals() constant public returns (uint8 _decimals) {\r\n        return TOKEN_DECIMALS_UINT8;\r\n    }\r\n    \r\n    // Constructor function\r\n    function ExampleToken(address _freezingStorage) {\r\n        require(_freezingStorage != 0x0);\r\n    \t// Mint freezed Tokens\r\n\t\tFREEZING_STORAGE = _freezingStorage;\r\n        mint(FREEZING_STORAGE, FREEZING_STORAGE_TOKENS);\r\n    }\r\n}",
  "sourcePath": "C:\\OpenServer\\domains\\smart_contracts\\sale\\contracts\\ExampleToken.sol",
  "compiler": {
    "name": "solc",
    "version": "0.4.18+commit.9cf6e910.Emscripten.clang"
  },
  "schemaVersion": "1.0.1",
  "updatedAt": "2017-11-08T10:02:06.388Z"
}