{
  "contractName": "FinalizableCrowdsale",
  "abi": [
    {
      "constant": true,
      "inputs": [],
      "name": "rate",
      "outputs": [
        {
          "name": "",
          "type": "uint256"
        }
      ],
      "payable": false,
      "stateMutability": "view",
      "type": "function"
    },
    {
      "constant": true,
      "inputs": [],
      "name": "endTime",
      "outputs": [
        {
          "name": "",
          "type": "uint256"
        }
      ],
      "payable": false,
      "stateMutability": "view",
      "type": "function"
    },
    {
      "constant": true,
      "inputs": [],
      "name": "weiRaised",
      "outputs": [
        {
          "name": "",
          "type": "uint256"
        }
      ],
      "payable": false,
      "stateMutability": "view",
      "type": "function"
    },
    {
      "constant": true,
      "inputs": [],
      "name": "hasStarted",
      "outputs": [
        {
          "name": "",
          "type": "bool"
        }
      ],
      "payable": false,
      "stateMutability": "view",
      "type": "function"
    },
    {
      "constant": false,
      "inputs": [],
      "name": "finalize",
      "outputs": [],
      "payable": false,
      "stateMutability": "nonpayable",
      "type": "function"
    },
    {
      "constant": true,
      "inputs": [],
      "name": "wallet",
      "outputs": [
        {
          "name": "",
          "type": "address"
        }
      ],
      "payable": false,
      "stateMutability": "view",
      "type": "function"
    },
    {
      "constant": true,
      "inputs": [],
      "name": "startTime",
      "outputs": [
        {
          "name": "",
          "type": "uint256"
        }
      ],
      "payable": false,
      "stateMutability": "view",
      "type": "function"
    },
    {
      "constant": true,
      "inputs": [],
      "name": "isFinalized",
      "outputs": [
        {
          "name": "",
          "type": "bool"
        }
      ],
      "payable": false,
      "stateMutability": "view",
      "type": "function"
    },
    {
      "constant": true,
      "inputs": [],
      "name": "owner",
      "outputs": [
        {
          "name": "",
          "type": "address"
        }
      ],
      "payable": false,
      "stateMutability": "view",
      "type": "function"
    },
    {
      "constant": true,
      "inputs": [],
      "name": "hasEnded",
      "outputs": [
        {
          "name": "",
          "type": "bool"
        }
      ],
      "payable": false,
      "stateMutability": "view",
      "type": "function"
    },
    {
      "constant": false,
      "inputs": [
        {
          "name": "newOwner",
          "type": "address"
        }
      ],
      "name": "transferOwnership",
      "outputs": [],
      "payable": false,
      "stateMutability": "nonpayable",
      "type": "function"
    },
    {
      "constant": true,
      "inputs": [],
      "name": "hardCap",
      "outputs": [
        {
          "name": "",
          "type": "uint256"
        }
      ],
      "payable": false,
      "stateMutability": "view",
      "type": "function"
    },
    {
      "constant": true,
      "inputs": [],
      "name": "token",
      "outputs": [
        {
          "name": "",
          "type": "address"
        }
      ],
      "payable": false,
      "stateMutability": "view",
      "type": "function"
    },
    {
      "inputs": [
        {
          "name": "_startTime",
          "type": "uint32"
        },
        {
          "name": "_endTime",
          "type": "uint32"
        },
        {
          "name": "_rate",
          "type": "uint256"
        },
        {
          "name": "_hardCap",
          "type": "uint256"
        },
        {
          "name": "_wallet",
          "type": "address"
        },
        {
          "name": "_token",
          "type": "address"
        }
      ],
      "payable": false,
      "stateMutability": "nonpayable",
      "type": "constructor"
    },
    {
      "payable": true,
      "stateMutability": "payable",
      "type": "fallback"
    },
    {
      "anonymous": false,
      "inputs": [],
      "name": "Finalized",
      "type": "event"
    },
    {
      "anonymous": false,
      "inputs": [
        {
          "indexed": true,
          "name": "previousOwner",
          "type": "address"
        },
        {
          "indexed": true,
          "name": "newOwner",
          "type": "address"
        }
      ],
      "name": "OwnershipTransferred",
      "type": "event"
    },
    {
      "anonymous": false,
      "inputs": [
        {
          "indexed": true,
          "name": "purchaser",
          "type": "address"
        },
        {
          "indexed": true,
          "name": "beneficiary",
          "type": "address"
        },
        {
          "indexed": false,
          "name": "value",
          "type": "uint256"
        },
        {
          "indexed": false,
          "name": "amount",
          "type": "uint256"
        }
      ],
      "name": "TokenPurchase",
      "type": "event"
    }
  ],
  "bytecode": "0x60606040526007805460a060020a60ff0219169055341561001f57600080fd5b60405160c0806108b683398101604052808051919060200180519190602001805191906020018051919060200180519190602001805191505063ffffffff808716908616858585858585101561007457600080fd5b6000841161008157600080fd5b600160a060020a038216151561009657600080fd5b60008054600160a060020a03928316600160a060020a031991821617909155600196909655600294909455600492909255600655600380549183169184169190911790556007805433909216919092161790555050505050506107b8806100fe6000396000f3006060604052600436106100ab5763ffffffff60e060020a6000350416632c4e722e81146100b75780633197cbb6146100dc5780634042b66f146100ef57806344691f7e146101025780634bb278f314610129578063521eb2731461013c57806378e979251461016b5780638d4e40831461017e5780638da5cb5b14610191578063ecb70fb7146101a4578063f2fde38b146101b7578063fb86a404146101d6578063fc0c546a146101e9575b6100b533346101fc565b005b34156100c257600080fd5b6100ca610433565b60405190815260200160405180910390f35b34156100e757600080fd5b6100ca610439565b34156100fa57600080fd5b6100ca61043f565b341561010d57600080fd5b610115610445565b604051901515815260200160405180910390f35b341561013457600080fd5b6100b561044e565b341561014757600080fd5b61014f61050f565b604051600160a060020a03909116815260200160405180910390f35b341561017657600080fd5b6100ca61051e565b341561018957600080fd5b610115610524565b341561019c57600080fd5b61014f610545565b34156101af57600080fd5b610115610554565b34156101c257600080fd5b6100b5600160a060020a03600435166105e1565b34156101e157600080fd5b6100ca61067c565b34156101f457600080fd5b61014f610682565b60008080808080600160a060020a038816151561021857600080fd5b60008054600160a060020a0316906318160ddd90604051602001526040518163ffffffff1660e060020a028152600401602060405180830381600087803b151561026157600080fd5b6102c65a03f1151561027257600080fd5b505050604051805190509550610286610691565b9450610293878688610697565b151561029e57600080fd5b6102ae878663ffffffff6106ef16565b600654909450600093506102c8858863ffffffff61071a16565b1115610310576006546102e1908763ffffffff61072916565b91506102f3828663ffffffff61073b16565b9050610305818663ffffffff6106ef16565b935080870392508096505b600554610323908863ffffffff61071a16565b60055560008054600160a060020a0316906340c10f19908a9087906040516020015260405160e060020a63ffffffff8516028152600160a060020a0390921660048301526024820152604401602060405180830381600087803b151561038857600080fd5b6102c65a03f1151561039957600080fd5b50505060405180515050600160a060020a038816807f623b3804fa71d67900d064613da8f94b9617215ee90799290593e1745087ad18898760405191825260208201526040908101905180910390a3821561041f57600160a060020a03331683156108fc0284604051600060405180830381858888f19350505050151561041f57600080fd5b6104298888610752565b5050505050505050565b60045481565b60025481565b60055481565b60015442101590565b60075433600160a060020a0390811691161461046957600080fd5b60075474010000000000000000000000000000000000000000900460ff161561049157600080fd5b610499610554565b15156104a457600080fd5b6104ac61078a565b7f6823b073d48d6e3a7d385eeb601452d680e74bb46afe3255a7d778f3a9b1768160405160405180910390a16007805474ff0000000000000000000000000000000000000000191674010000000000000000000000000000000000000000179055565b600354600160a060020a031681565b60015481565b60075474010000000000000000000000000000000000000000900460ff1681565b600754600160a060020a031681565b60006002544211806105dc57506004546006546105769163ffffffff61072916565b60008054600160a060020a0316906318160ddd90604051602001526040518163ffffffff1660e060020a028152600401602060405180830381600087803b15156105bf57600080fd5b6102c65a03f115156105d057600080fd5b50505060405180519050115b905090565b60075433600160a060020a039081169116146105fc57600080fd5b600160a060020a038116151561061157600080fd5b600754600160a060020a0380831691167f8be0079c531659141344cd1fd0a4f28419497f9722a3daafe3b4186f6b6457e060405160405180910390a36007805473ffffffffffffffffffffffffffffffffffffffff1916600160a060020a0392909216919091179055565b60065481565b600054600160a060020a031681565b60045490565b60008060008060015442101580156106b157506002544211155b60065490935087151592506106cc908763ffffffff61072916565b85111590508280156106db5750815b80156106e45750805b979650505050505050565b600082820283158061070b575082848281151561070857fe5b04145b151561071357fe5b9392505050565b60008282018381101561071357fe5b60008282111561073557fe5b50900390565b600080828481151561074957fe5b04949350505050565b600354600160a060020a03163480156108fc0290604051600060405180830381858888f19350505050151561078657600080fd5b5050565b5600a165627a7a72305820934c9bcbe22be41f678be3f33422a0141dccb66224aa6f1c3c5107847afe5c750029",
  "source": "pragma solidity ^0.4.11;\r\n\r\nimport '../math/SafeMath.sol';\r\nimport '../ownership/Ownable.sol';\r\nimport './Crowdsale.sol';\r\n\r\n/**\r\n * @title FinalizableCrowdsale\r\n * @dev Extension of Crowdsale where an owner can do extra work\r\n * after finishing.\r\n */\r\ncontract FinalizableCrowdsale is Crowdsale, Ownable {\r\n    using SafeMath for uint256;\r\n\r\n    bool public isFinalized = false;\r\n\r\n    event Finalized();\r\n\r\n    function FinalizableCrowdsale(uint32 _startTime, uint32 _endTime, uint _rate, uint _hardCap, address _wallet, address _token)\r\n            Crowdsale(_startTime, _endTime, _rate, _hardCap, _wallet, _token) {\r\n    }\r\n\r\n    /**\r\n     * @dev Must be called after crowdsale ends, to do some extra finalization\r\n     * work. Calls the contract's finalization function.\r\n     */\r\n    function finalize() onlyOwner public {\r\n        require(!isFinalized);\r\n        require(hasEnded());\r\n\r\n        finalization();\r\n        Finalized();\r\n\r\n        isFinalized = true;\r\n    }\r\n\r\n    /**\r\n     * @dev Can be overridden to add finalization logic. The overriding function\r\n     * should call super.finalization() to ensure the chain of finalization is\r\n     * executed entirely.\r\n     */\r\n    function finalization() internal {\r\n    }\r\n}",
  "sourcePath": "C:\\OpenServer\\domains\\smart_contracts\\sale\\contracts\\base\\crowdsale\\FinalizableCrowdsale.sol",
  "compiler": {
    "name": "solc",
    "version": "0.4.18+commit.9cf6e910.Emscripten.clang"
  },
  "schemaVersion": "1.0.1",
  "updatedAt": "2017-11-14T07:35:08.854Z"
}