{
  "contractName": "FreezingStorage",
  "abi": [
    {
      "constant": true,
      "inputs": [],
      "name": "backwordWallet",
      "outputs": [
        {
          "name": "",
          "type": "address"
        }
      ],
      "payable": false,
      "stateMutability": "view",
      "type": "function"
    },
    {
      "constant": false,
      "inputs": [
        {
          "name": "_crowdsale",
          "type": "address"
        }
      ],
      "name": "setCrowdsale",
      "outputs": [],
      "payable": false,
      "stateMutability": "nonpayable",
      "type": "function"
    },
    {
      "constant": true,
      "inputs": [],
      "name": "forwardWallet",
      "outputs": [
        {
          "name": "",
          "type": "address"
        }
      ],
      "payable": false,
      "stateMutability": "view",
      "type": "function"
    },
    {
      "constant": false,
      "inputs": [],
      "name": "release",
      "outputs": [
        {
          "name": "",
          "type": "bool"
        }
      ],
      "payable": false,
      "stateMutability": "nonpayable",
      "type": "function"
    },
    {
      "constant": true,
      "inputs": [],
      "name": "owner",
      "outputs": [
        {
          "name": "",
          "type": "address"
        }
      ],
      "payable": false,
      "stateMutability": "view",
      "type": "function"
    },
    {
      "constant": true,
      "inputs": [],
      "name": "crowdsale",
      "outputs": [
        {
          "name": "",
          "type": "address"
        }
      ],
      "payable": false,
      "stateMutability": "view",
      "type": "function"
    },
    {
      "constant": true,
      "inputs": [],
      "name": "cryptosale",
      "outputs": [
        {
          "name": "",
          "type": "address"
        }
      ],
      "payable": false,
      "stateMutability": "view",
      "type": "function"
    },
    {
      "constant": false,
      "inputs": [
        {
          "name": "_cryptosale",
          "type": "address"
        }
      ],
      "name": "setCryptosale",
      "outputs": [],
      "payable": false,
      "stateMutability": "nonpayable",
      "type": "function"
    },
    {
      "constant": false,
      "inputs": [
        {
          "name": "newOwner",
          "type": "address"
        }
      ],
      "name": "transferOwnership",
      "outputs": [],
      "payable": false,
      "stateMutability": "nonpayable",
      "type": "function"
    },
    {
      "inputs": [
        {
          "name": "_forwardWallet",
          "type": "address"
        },
        {
          "name": "_backwordWallet",
          "type": "address"
        }
      ],
      "payable": false,
      "stateMutability": "nonpayable",
      "type": "constructor"
    },
    {
      "anonymous": false,
      "inputs": [
        {
          "indexed": true,
          "name": "previousOwner",
          "type": "address"
        },
        {
          "indexed": true,
          "name": "newOwner",
          "type": "address"
        }
      ],
      "name": "OwnershipTransferred",
      "type": "event"
    }
  ],
  "bytecode": "0x6060604052341561000f57600080fd5b604051604080610aa2833981016040528080519190602001805160008054600160a060020a03191633600160a060020a0390811691909117909155909250831615801591506100665750600160a060020a03811615155b151561007157600080fd5b60038054600160a060020a03938416600160a060020a031991821617909155600480549290931691161790556109f6806100ac6000396000f30060606040526004361061007f5763ffffffff60e060020a60003504166345565ae78114610084578063483a20b2146100b357806368b84fe1146100d457806386d1a69f146100e75780638da5cb5b1461010e5780639c1e03a014610121578063bb60374514610134578063de9526fa14610147578063f2fde38b14610166575b600080fd5b341561008f57600080fd5b610097610185565b604051600160a060020a03909116815260200160405180910390f35b34156100be57600080fd5b6100d2600160a060020a0360043516610194565b005b34156100df57600080fd5b61009761020a565b34156100f257600080fd5b6100fa610219565b604051901515815260200160405180910390f35b341561011957600080fd5b61009761087a565b341561012c57600080fd5b610097610889565b341561013f57600080fd5b610097610898565b341561015257600080fd5b6100d2600160a060020a03600435166108a7565b341561017157600080fd5b6100d2600160a060020a036004351661091d565b600454600160a060020a031681565b60005433600160a060020a039081169116146101af57600080fd5b600160a060020a038116158015906101d05750600154600160a060020a0316155b15156101db57600080fd5b6001805473ffffffffffffffffffffffffffffffffffffffff1916600160a060020a0392909216919091179055565b600354600160a060020a031681565b6002546000908190819081908190600160a060020a0316638d4e408382604051602001526040518163ffffffff1660e060020a028152600401602060405180830381600087803b151561026b57600080fd5b6102c65a03f1151561027c57600080fd5b50505060405180519050151561029157600080fd5b600154600160a060020a031663fc0c546a6000604051602001526040518163ffffffff1660e060020a028152600401602060405180830381600087803b15156102d957600080fd5b6102c65a03f115156102ea57600080fd5b5050506040518051945050600160a060020a0384166370a082313060006040516020015260405160e060020a63ffffffff8416028152600160a060020a039091166004820152602401602060405180830381600087803b151561034c57600080fd5b6102c65a03f1151561035d57600080fd5b50505060405180519350506000831161037557600080fd5b600254600160a060020a0316637d3d65226000604051602001526040518163ffffffff1660e060020a028152600401602060405180830381600087803b15156103bd57600080fd5b6102c65a03f115156103ce57600080fd5b5050506040518051905080156104435750600154600160a060020a0316637d3d65226000604051602001526040518163ffffffff1660e060020a028152600401602060405180830381600087803b151561042757600080fd5b6102c65a03f1151561043857600080fd5b505050604051805190505b156104cc57600354600160a060020a038086169163a9059cbb91168560006040516020015260405160e060020a63ffffffff8516028152600160a060020a0390921660048301526024820152604401602060405180830381600087803b15156104ab57600080fd5b6102c65a03f115156104bc57600080fd5b505050604051805190505061086f565b600254600160a060020a0316637d3d65226000604051602001526040518163ffffffff1660e060020a028152600401602060405180830381600087803b151561051457600080fd5b6102c65a03f1151561052557600080fd5b5050506040518051905015801561059b5750600154600160a060020a0316637d3d65226000604051602001526040518163ffffffff1660e060020a028152600401602060405180830381600087803b151561057f57600080fd5b6102c65a03f1151561059057600080fd5b505050604051805190505b156107f05760028054600160a060020a031663401938836000604051602001526040518163ffffffff1660e060020a028152600401602060405180830381600087803b15156105e957600080fd5b6102c65a03f115156105fa57600080fd5b5050506040518051600254909150600160a060020a0316634042b66f6000604051602001526040518163ffffffff1660e060020a028152600401602060405180830381600087803b151561064d57600080fd5b6102c65a03f1151561065e57600080fd5b5050506040518051905060640281151561067457fe5b0460640381151561068157fe5b60025491900460649081039350908390600160a060020a0316634042b66f6000604051602001526040518163ffffffff1660e060020a028152600401602060405180830381600087803b15156106d657600080fd5b6102c65a03f115156106e757600080fd5b50505060405180519050028115156106fb57fe5b6003549190049150600160a060020a038086169163a9059cbb91168360006040516020015260405160e060020a63ffffffff8516028152600160a060020a0390921660048301526024820152604401602060405180830381600087803b151561076357600080fd5b6102c65a03f1151561077457600080fd5b50505060405180515050600454600160a060020a038086169163a9059cbb91166107a4868563ffffffff6109b816565b60006040516020015260405160e060020a63ffffffff8516028152600160a060020a0390921660048301526024820152604401602060405180830381600087803b15156104ab57600080fd5b600454600160a060020a038086169163a9059cbb91168560006040516020015260405160e060020a63ffffffff8516028152600160a060020a0390921660048301526024820152604401602060405180830381600087803b151561085357600080fd5b6102c65a03f1151561086457600080fd5b505050604051805150505b600194505050505090565b600054600160a060020a031681565b600154600160a060020a031681565b600254600160a060020a031681565b60005433600160a060020a039081169116146108c257600080fd5b600160a060020a038116158015906108e35750600254600160a060020a0316155b15156108ee57600080fd5b6002805473ffffffffffffffffffffffffffffffffffffffff1916600160a060020a0392909216919091179055565b60005433600160a060020a0390811691161461093857600080fd5b600160a060020a038116151561094d57600080fd5b600054600160a060020a0380831691167f8be0079c531659141344cd1fd0a4f28419497f9722a3daafe3b4186f6b6457e060405160405180910390a36000805473ffffffffffffffffffffffffffffffffffffffff1916600160a060020a0392909216919091179055565b6000828211156109c457fe5b509003905600a165627a7a7230582085862b24c98991cf3bac8c67a7099a7fd2469b3b26e5341faeed0ff07675574d0029",
  "source": "pragma solidity ^0.4.16;\r\n\r\nimport \"./base/ownership/Ownable.sol\";\r\nimport \"./base/token/MintableToken.sol\";\r\nimport \"./base/math/SafeMath.sol\";\r\n\r\nimport \"./CrowdsaleInterface.sol\";\r\nimport \"./CryptosaleInterface.sol\";\r\n\r\ncontract FreezingStorage is Ownable {\r\n\tusing SafeMath for uint256;\r\n\r\n\t// Linked crowdsale contract\r\n\tCrowdsaleInterface public crowdsale;\r\n\t// Linked cryptosale contract\r\n\tCryptosaleInterface public cryptosale;\r\n\r\n\taddress public forwardWallet;\r\n\taddress public backwordWallet;\r\n\r\n\t// Constructor function\r\n\tfunction FreezingStorage(address _forwardWallet, address _backwordWallet) {\r\n\t\trequire(_forwardWallet != address(0) && _backwordWallet != address(0));\r\n\r\n\t\tforwardWallet = _forwardWallet;\r\n\t\tbackwordWallet = _backwordWallet;\r\n\t}\r\n\r\n\t/**\r\n     * public methods\r\n     */\r\n\r\n\t// Sending tokens to forwardWallet and backwordWallet\r\n\tfunction release() public returns(bool) {\r\n\t\trequire(cryptosale.isFinalized());\r\n\r\n        MintableToken token = MintableToken(crowdsale.token());\r\n    \tuint tokenAmount = token.balanceOf(this);\r\n        require(tokenAmount > 0);\r\n        \r\n        if (cryptosale.goalReached() && crowdsale.goalReached()) {\r\n        \ttoken.transfer(forwardWallet, tokenAmount);\r\n    \t} else {\r\n    \t\tif (!cryptosale.goalReached() && crowdsale.goalReached()) {\r\n    \t\t\t// uint realHonoredTokenAmount = (tokenAmount * (cryptosale.weiRaised() * 100 / cryptosale.goal())) / 100;\r\n    \t\t\tuint k =  100 - (100 - (cryptosale.weiRaised() * 100 / cryptosale.goal())) / 2;\r\n    \t\t\tuint realHonoredTokenAmount = cryptosale.weiRaised() * k / 100; //tokenAmount\r\n\t\t\t\t\r\n    \t\t\ttoken.transfer(forwardWallet, realHonoredTokenAmount);\r\n    \t\t\ttoken.transfer(backwordWallet, tokenAmount.sub(realHonoredTokenAmount));\r\n\t\t\t} else {\r\n\t\t\t\ttoken.transfer(backwordWallet, tokenAmount);\r\n\t\t\t}\r\n    \t}\r\n    \t\r\n    \treturn true;\r\n    }\r\n\r\n    /**\r\n     * only owner methods\r\n     */\r\n\r\n\t// Setting crowdsale contract. Can set crowdsale once\r\n\tfunction setCrowdsale(address _crowdsale) onlyOwner public {\r\n\t\trequire(_crowdsale != 0x0 && crowdsale == address(0));\r\n\r\n\t\tcrowdsale = CrowdsaleInterface(_crowdsale);\r\n\t}\r\n\r\n\t// Setting cryptosale contract. Can set cryptosale once\r\n\tfunction setCryptosale(address _cryptosale) onlyOwner public {\r\n\t\trequire(_cryptosale != 0x0 && cryptosale == address(0));\r\n\r\n\t\tcryptosale = CryptosaleInterface(_cryptosale);\r\n\t}\r\n}",
  "sourcePath": "C:\\OpenServer\\domains\\smart_contracts\\sale\\contracts\\FreezingStorage.sol",
  "compiler": {
    "name": "solc",
    "version": "0.4.18+commit.9cf6e910.Emscripten.clang"
  },
  "schemaVersion": "1.0.1",
  "updatedAt": "2017-11-08T09:40:16.429Z"
}