{
  "contractName": "RateProvider",
  "abi": [
    {
      "constant": true,
      "inputs": [],
      "name": "tokenHolder",
      "outputs": [
        {
          "name": "",
          "type": "address"
        }
      ],
      "payable": false,
      "stateMutability": "view",
      "type": "function"
    },
    {
      "constant": true,
      "inputs": [
        {
          "name": "buyer",
          "type": "address"
        },
        {
          "name": "baseRate",
          "type": "uint256"
        }
      ],
      "name": "getRate",
      "outputs": [
        {
          "name": "",
          "type": "uint256"
        }
      ],
      "payable": false,
      "stateMutability": "view",
      "type": "function"
    },
    {
      "constant": true,
      "inputs": [],
      "name": "owner",
      "outputs": [
        {
          "name": "",
          "type": "address"
        }
      ],
      "payable": false,
      "stateMutability": "view",
      "type": "function"
    },
    {
      "constant": false,
      "inputs": [
        {
          "name": "newOwner",
          "type": "address"
        }
      ],
      "name": "transferOwnership",
      "outputs": [],
      "payable": false,
      "stateMutability": "nonpayable",
      "type": "function"
    },
    {
      "inputs": [
        {
          "name": "_tokenHolder",
          "type": "address"
        }
      ],
      "payable": false,
      "stateMutability": "nonpayable",
      "type": "constructor"
    },
    {
      "anonymous": false,
      "inputs": [
        {
          "indexed": true,
          "name": "previousOwner",
          "type": "address"
        },
        {
          "indexed": true,
          "name": "newOwner",
          "type": "address"
        }
      ],
      "name": "OwnershipTransferred",
      "type": "event"
    }
  ],
  "bytecode": "0x6060604052341561000f57600080fd5b6040516020806102ad8339810160405280805160008054600160a060020a03338116600160a060020a03199283161790925560018054929093169116179055505061024e8061005f6000396000f3006060604052600436106100615763ffffffff7c0100000000000000000000000000000000000000000000000000000000600035041663420a83e78114610066578063886ef644146100955780638da5cb5b146100c9578063f2fde38b146100dc575b600080fd5b341561007157600080fd5b6100796100fd565b604051600160a060020a03909116815260200160405180910390f35b34156100a057600080fd5b6100b7600160a060020a036004351660243561010c565b60405190815260200160405180910390f35b34156100d457600080fd5b610079610152565b34156100e757600080fd5b6100fb600160a060020a0360043516610161565b005b600154600160a060020a031681565b6001546000908290600160a060020a038581169116141561014b5761014861013b82600a63ffffffff6101fc16565b829063ffffffff61021316565b90505b9392505050565b600054600160a060020a031681565b60005433600160a060020a0390811691161461017c57600080fd5b600160a060020a038116151561019157600080fd5b600054600160a060020a0380831691167f8be0079c531659141344cd1fd0a4f28419497f9722a3daafe3b4186f6b6457e060405160405180910390a36000805473ffffffffffffffffffffffffffffffffffffffff1916600160a060020a0392909216919091179055565b600080828481151561020a57fe5b04949350505050565b60008282018381101561014b57fe00a165627a7a723058200efae9ea3ea0c76773afcb30097b436ab1d5344aaf729b7f1d6017a18e87cb6a0029",
  "source": "pragma solidity ^0.4.16;\r\n\r\nimport \"./base/ownership/Ownable.sol\";\r\nimport \"./base/math/SafeMath.sol\";\r\n\r\nimport \"./Constants.sol\";\r\n\r\ncontract RateProvider is Constants, Ownable {\r\n    using SafeMath for uint;\r\n    \r\n    address public tokenHolder;\r\n\r\n    function RateProvider(address _tokenHolder) {\r\n    \ttokenHolder = _tokenHolder;\r\n    }\r\n    \r\n    function getRate(\r\n        address buyer,\r\n        uint baseRate\r\n    ) public constant returns (uint) {\r\n        uint rate = baseRate;\r\n\r\n\t\tif (buyer == tokenHolder) {\r\n\t\t\trate = rate.add(rate.div(10)); // + 10%\r\n\t\t}\r\n\r\n        return rate;\r\n    }\r\n}",
  "sourcePath": "C:\\OpenServer\\domains\\smart_contracts\\sale\\contracts\\RateProvider.sol",
  "compiler": {
    "name": "solc",
    "version": "0.4.18+commit.9cf6e910.Emscripten.clang"
  },
  "schemaVersion": "1.0.1",
  "updatedAt": "2017-11-08T10:56:07.395Z"
}