{
  "contractName": "ReferralRefundVault",
  "abi": [
    {
      "constant": false,
      "inputs": [],
      "name": "releaseDanglingMoney",
      "outputs": [],
      "payable": false,
      "stateMutability": "nonpayable",
      "type": "function"
    },
    {
      "constant": true,
      "inputs": [],
      "name": "getBalance",
      "outputs": [
        {
          "name": "",
          "type": "uint256"
        }
      ],
      "payable": false,
      "stateMutability": "view",
      "type": "function"
    },
    {
      "constant": true,
      "inputs": [],
      "name": "tokenHolder",
      "outputs": [
        {
          "name": "",
          "type": "address"
        }
      ],
      "payable": false,
      "stateMutability": "view",
      "type": "function"
    },
    {
      "constant": false,
      "inputs": [
        {
          "name": "investor",
          "type": "address"
        },
        {
          "name": "partner",
          "type": "address"
        }
      ],
      "name": "forwardFunds",
      "outputs": [],
      "payable": true,
      "stateMutability": "payable",
      "type": "function"
    },
    {
      "constant": false,
      "inputs": [
        {
          "name": "partner",
          "type": "address"
        }
      ],
      "name": "withdraw",
      "outputs": [],
      "payable": false,
      "stateMutability": "nonpayable",
      "type": "function"
    },
    {
      "constant": true,
      "inputs": [
        {
          "name": "",
          "type": "address"
        }
      ],
      "name": "partnersFunds",
      "outputs": [
        {
          "name": "",
          "type": "uint256"
        }
      ],
      "payable": false,
      "stateMutability": "view",
      "type": "function"
    },
    {
      "constant": true,
      "inputs": [],
      "name": "owner",
      "outputs": [
        {
          "name": "",
          "type": "address"
        }
      ],
      "payable": false,
      "stateMutability": "view",
      "type": "function"
    },
    {
      "constant": true,
      "inputs": [],
      "name": "cryptosaleWallet",
      "outputs": [
        {
          "name": "",
          "type": "address"
        }
      ],
      "payable": false,
      "stateMutability": "view",
      "type": "function"
    },
    {
      "constant": false,
      "inputs": [
        {
          "name": "investor",
          "type": "address"
        }
      ],
      "name": "claimRefund",
      "outputs": [],
      "payable": false,
      "stateMutability": "nonpayable",
      "type": "function"
    },
    {
      "constant": true,
      "inputs": [
        {
          "name": "",
          "type": "address"
        }
      ],
      "name": "deposited",
      "outputs": [
        {
          "name": "",
          "type": "uint256"
        }
      ],
      "payable": false,
      "stateMutability": "view",
      "type": "function"
    },
    {
      "constant": false,
      "inputs": [
        {
          "name": "newOwner",
          "type": "address"
        }
      ],
      "name": "transferOwnership",
      "outputs": [],
      "payable": false,
      "stateMutability": "nonpayable",
      "type": "function"
    },
    {
      "inputs": [
        {
          "name": "_tokenHolder",
          "type": "address"
        },
        {
          "name": "_cryptosaleWallet",
          "type": "address"
        }
      ],
      "payable": false,
      "stateMutability": "nonpayable",
      "type": "constructor"
    },
    {
      "anonymous": false,
      "inputs": [
        {
          "indexed": true,
          "name": "beneficiary",
          "type": "address"
        },
        {
          "indexed": false,
          "name": "weiAmount",
          "type": "uint256"
        }
      ],
      "name": "Refunded",
      "type": "event"
    },
    {
      "anonymous": false,
      "inputs": [
        {
          "indexed": true,
          "name": "previousOwner",
          "type": "address"
        },
        {
          "indexed": true,
          "name": "newOwner",
          "type": "address"
        }
      ],
      "name": "OwnershipTransferred",
      "type": "event"
    }
  ],
  "bytecode": "0x6060604052341561000f57600080fd5b604051604080610819833981016040528080519190602001805160008054600160a060020a03338116600160a060020a03199283161790925560038054968316968216969096179095556004805491909216941693909317909255505061079e8061007b6000396000f3006060604052600436106100955763ffffffff60e060020a6000350416630c572d92811461009a57806312065fe0146100af578063420a83e7146100d45780635045e8891461010357806351cff8d91461011d5780638bcfab341461013c5780638da5cb5b1461015b578063b12ce2481461016e578063bffa55d514610181578063cb13cddb146101a0578063f2fde38b146101bf575b600080fd5b34156100a557600080fd5b6100ad6101de565b005b34156100ba57600080fd5b6100c2610290565b60405190815260200160405180910390f35b34156100df57600080fd5b6100e761029e565b604051600160a060020a03909116815260200160405180910390f35b6100ad600160a060020a03600435811690602435166102ad565b341561012857600080fd5b6100ad600160a060020a03600435166103ea565b341561014757600080fd5b6100c2600160a060020a03600435166104de565b341561016657600080fd5b6100e76104f0565b341561017957600080fd5b6100e76104ff565b341561018c57600080fd5b6100ad600160a060020a036004351661050e565b34156101ab57600080fd5b6100c2600160a060020a03600435166106af565b34156101ca57600080fd5b6100ad600160a060020a03600435166106c1565b6003544290600160a060020a031663d86981f16000604051602001526040518163ffffffff1660e060020a028152600401602060405180830381600087803b151561022857600080fd5b6102c65a03f1151561023957600080fd5b505050604051805190506276a700011115151561025557600080fd5b600454600160a060020a039081169030163180156108fc0290604051600060405180830381858888f19350505050151561028e57600080fd5b565b600160a060020a0330163190565b600354600160a060020a031681565b60005433600160a060020a039081169116146102c857600080fd5b600354600160a060020a03166350d4a2b96000604051602001526040518163ffffffff1660e060020a028152600401602060405180830381600087803b151561031057600080fd5b6102c65a03f1151561032157600080fd5b505050604051805190501561036757600160a060020a0381163480156108fc0290604051600060405180830381858888f19350505050151561036257600080fd5b6103e6565b600160a060020a038216600090815260026020526040902054610390903463ffffffff61075c16565b600160a060020a038084166000908152600260209081526040808320949094559184168152600190915220546103cc903463ffffffff61075c16565b600160a060020a0382166000908152600160205260409020555b5050565b6000805433600160a060020a0390811691161461040657600080fd5b600354600160a060020a03166350d4a2b96000604051602001526040518163ffffffff1660e060020a028152600401602060405180830381600087803b151561044e57600080fd5b6102c65a03f1151561045f57600080fd5b50505060405180519050151561047457600080fd5b50600160a060020a03811660009081526001602052604081205490811161049a57600080fd5b600160a060020a0382166000818152600160205260408082209190915582156108fc0290839051600060405180830381858888f1935050505015156103e657600080fd5b60016020526000908152604090205481565b600054600160a060020a031681565b600454600160a060020a031681565b6000805433600160a060020a0390811691161461052a57600080fd5b600354600160a060020a031663213294cd6000604051602001526040518163ffffffff1660e060020a028152600401602060405180830381600087803b151561057257600080fd5b6102c65a03f1151561058357600080fd5b5050506040518051905080156105f95750600354600160a060020a03166350d4a2b96000604051602001526040518163ffffffff1660e060020a028152600401602060405180830381600087803b15156105dc57600080fd5b6102c65a03f115156105ed57600080fd5b50505060405180519050155b151561060457600080fd5b50600160a060020a03811660009081526002602052604081205490811161062a57600080fd5b600160a060020a0382166000818152600260205260408082209190915582156108fc0290839051600060405180830381858888f19350505050151561066e57600080fd5b81600160a060020a03167fd7dee2702d63ad89917b6a4da9981c90c4d24f8c2bdfd64c604ecae57d8d06518260405190815260200160405180910390a25050565b60026020526000908152604090205481565b60005433600160a060020a039081169116146106dc57600080fd5b600160a060020a03811615156106f157600080fd5b600054600160a060020a0380831691167f8be0079c531659141344cd1fd0a4f28419497f9722a3daafe3b4186f6b6457e060405160405180910390a36000805473ffffffffffffffffffffffffffffffffffffffff1916600160a060020a0392909216919091179055565b60008282018381101561076b57fe5b93925050505600a165627a7a723058207949a8e96b109a42847659554c523e602a0473f8cb12da9edbf49a72b176e3570029",
  "source": "pragma solidity ^0.4.16;\r\n\r\nimport \"./base/math/SafeMath.sol\";\r\nimport \"./base/ownership/Ownable.sol\";\r\n\r\n// import \"./RefundVaultProvider.sol\";\r\nimport \"./TokenHolder.sol\";\r\n\r\n/**\r\n * Storage contract of referral partner's revenue\r\n */\r\ncontract ReferralRefundVault is Ownable { //, RefundVaultProvider\r\n    using SafeMath for uint256;\r\n    \r\n    event Refunded(address indexed beneficiary, uint weiAmount);\r\n    \r\n    // Partner's referral revenue\r\n    mapping (address => uint256) public partnersFunds;\r\n    mapping (address => uint256) public deposited;\r\n\r\n    // This contract knows that who how much bought tokens\r\n    TokenHolder public tokenHolder;\r\n    // Cryptosale wallet\r\n    address public cryptosaleWallet;\r\n\r\n    function ReferralRefundVault(address _tokenHolder, address _cryptosaleWallet) {\r\n        tokenHolder = TokenHolder(_tokenHolder);\r\n        cryptosaleWallet = _cryptosaleWallet;\r\n    }\r\n\r\n    /**\r\n     * public methods\r\n     */\r\n\r\n    // If referral partners doesn't took the revenue at defined period then cryptosale will get it\r\n    function releaseDanglingMoney() public {\r\n        // require(state == State.Withdraw);\r\n        require(tokenHolder.getCrowdsaleEndTime() + 90 days <= now); //3 minutes\r\n\r\n        cryptosaleWallet.transfer(this.balance);\r\n    }\r\n\r\n    /**\r\n     * payable methods\r\n     */\r\n\r\n    // Save investor's deposit funds for refunding and save partner's referral revenue\r\n    function forwardFunds(address investor, address partner) onlyOwner payable public { //deposit\r\n        // require(state == State.Active);\r\n\r\n        if (tokenHolder.crowdsaleGoalReached()) {\r\n            partner.transfer(msg.value);\r\n        } else {\r\n            deposited[investor] = deposited[investor].add(msg.value);\r\n            partnersFunds[partner] = partnersFunds[partner].add(msg.value);\r\n        }\r\n    }\r\n\r\n    /**\r\n     * only owner methods\r\n     */\r\n    \r\n    // To give referral revenue\r\n\tfunction withdraw(address partner) onlyOwner public {\r\n\t\t// require(state == State.Withdraw);\r\n        require(tokenHolder.crowdsaleGoalReached());\r\n\t\tuint depositedValue = partnersFunds[partner];\r\n        require(depositedValue > 0);\r\n\r\n        partnersFunds[partner] = 0;\r\n        partner.transfer(depositedValue); // send revenue to referral partner\r\n\t}\r\n\r\n    function claimRefund(address investor) onlyOwner {\r\n        // require(state == State.Refunding);\r\n        require(tokenHolder.crowdsaleHasEnded() && !tokenHolder.crowdsaleGoalReached());\r\n        uint depositedValue = deposited[investor];\r\n        require(depositedValue > 0);\r\n\r\n        deposited[investor] = 0;\r\n        investor.transfer(depositedValue); // refund investor\r\n        Refunded(investor, depositedValue);\r\n    }\r\n\r\n    /**\r\n     * optional methods\r\n     */\r\n\r\n    // Get contract balance [optional]\r\n    function getBalance() public constant returns(uint) {\r\n        return this.balance;\r\n    }\r\n}",
  "sourcePath": "C:\\OpenServer\\domains\\smart_contracts\\sale\\contracts\\ReferralRefundVault.sol",
  "compiler": {
    "name": "solc",
    "version": "0.4.18+commit.9cf6e910.Emscripten.clang"
  },
  "schemaVersion": "1.0.1",
  "updatedAt": "2017-11-08T10:56:07.427Z"
}