{
  "contractName": "RefundVaultProvider",
  "abi": [
    {
      "constant": false,
      "inputs": [],
      "name": "close",
      "outputs": [],
      "payable": false,
      "stateMutability": "nonpayable",
      "type": "function"
    },
    {
      "constant": false,
      "inputs": [],
      "name": "RefundVaultCommon",
      "outputs": [],
      "payable": false,
      "stateMutability": "nonpayable",
      "type": "function"
    },
    {
      "constant": false,
      "inputs": [],
      "name": "enableRefunds",
      "outputs": [],
      "payable": false,
      "stateMutability": "nonpayable",
      "type": "function"
    },
    {
      "constant": true,
      "inputs": [],
      "name": "owner",
      "outputs": [
        {
          "name": "",
          "type": "address"
        }
      ],
      "payable": false,
      "stateMutability": "view",
      "type": "function"
    },
    {
      "constant": false,
      "inputs": [
        {
          "name": "investor",
          "type": "address"
        }
      ],
      "name": "claimRefund",
      "outputs": [],
      "payable": false,
      "stateMutability": "nonpayable",
      "type": "function"
    },
    {
      "constant": true,
      "inputs": [],
      "name": "state",
      "outputs": [
        {
          "name": "",
          "type": "uint8"
        }
      ],
      "payable": false,
      "stateMutability": "view",
      "type": "function"
    },
    {
      "constant": true,
      "inputs": [
        {
          "name": "",
          "type": "address"
        }
      ],
      "name": "deposited",
      "outputs": [
        {
          "name": "",
          "type": "uint256"
        }
      ],
      "payable": false,
      "stateMutability": "view",
      "type": "function"
    },
    {
      "constant": false,
      "inputs": [
        {
          "name": "newOwner",
          "type": "address"
        }
      ],
      "name": "transferOwnership",
      "outputs": [],
      "payable": false,
      "stateMutability": "nonpayable",
      "type": "function"
    },
    {
      "constant": false,
      "inputs": [
        {
          "name": "investor",
          "type": "address"
        }
      ],
      "name": "deposit",
      "outputs": [],
      "payable": true,
      "stateMutability": "payable",
      "type": "function"
    },
    {
      "anonymous": false,
      "inputs": [],
      "name": "Closed",
      "type": "event"
    },
    {
      "anonymous": false,
      "inputs": [],
      "name": "RefundsEnabled",
      "type": "event"
    },
    {
      "anonymous": false,
      "inputs": [
        {
          "indexed": true,
          "name": "beneficiary",
          "type": "address"
        },
        {
          "indexed": false,
          "name": "weiAmount",
          "type": "uint256"
        }
      ],
      "name": "Refunded",
      "type": "event"
    },
    {
      "anonymous": false,
      "inputs": [
        {
          "indexed": true,
          "name": "previousOwner",
          "type": "address"
        },
        {
          "indexed": true,
          "name": "newOwner",
          "type": "address"
        }
      ],
      "name": "OwnershipTransferred",
      "type": "event"
    }
  ],
  "bytecode": "0x606060405260008054600160a060020a033316600160a060020a031990911617905561051a806100306000396000f3006060604052600436106100985763ffffffff7c010000000000000000000000000000000000000000000000000000000060003504166343d726d6811461009d5780638b28d49d146100b25780638c52dc41146100c55780638da5cb5b146100d8578063bffa55d514610107578063c19d93fb14610126578063cb13cddb1461015d578063f2fde38b1461018e578063f340fa01146101ad575b600080fd5b34156100a857600080fd5b6100b06101c1565b005b34156100bd57600080fd5b6100b0610233565b34156100d057600080fd5b6100b061023f565b34156100e357600080fd5b6100eb6102b2565b604051600160a060020a03909116815260200160405180910390f35b341561011257600080fd5b6100b0600160a060020a03600435166102c1565b341561013157600080fd5b6101396103a5565b6040518082600281111561014957fe5b60ff16815260200191505060405180910390f35b341561016857600080fd5b61017c600160a060020a03600435166103ae565b60405190815260200160405180910390f35b341561019957600080fd5b6100b0600160a060020a03600435166103c0565b6100b0600160a060020a036004351661045b565b60005433600160a060020a039081169116146101dc57600080fd5b60006002805460ff16908111156101ef57fe5b146101f957600080fd5b6002805460ff1916811790557f1cdde67b72a90f19919ac732a437ac2f7a10fc128d28c2a6e525d89ce5cd9d3a60405160405180910390a1565b6002805460ff19169055565b60005433600160a060020a0390811691161461025a57600080fd5b60006002805460ff169081111561026d57fe5b1461027757600080fd5b6002805460ff191660011790557f599d8e5a83cffb867d051598c4d70e805d59802d8081c1c7d6dffc5b6aca2b8960405160405180910390a1565b600054600160a060020a031681565b6000805433600160a060020a039081169116146102dd57600080fd5b60016002805460ff16908111156102f057fe5b146102fa57600080fd5b50600160a060020a03811660009081526001602052604081205490811161032057600080fd5b600160a060020a0382166000818152600160205260408082209190915582156108fc0290839051600060405180830381858888f19350505050151561036457600080fd5b81600160a060020a03167fd7dee2702d63ad89917b6a4da9981c90c4d24f8c2bdfd64c604ecae57d8d06518260405190815260200160405180910390a25050565b60025460ff1681565b60016020526000908152604090205481565b60005433600160a060020a039081169116146103db57600080fd5b600160a060020a03811615156103f057600080fd5b600054600160a060020a0380831691167f8be0079c531659141344cd1fd0a4f28419497f9722a3daafe3b4186f6b6457e060405160405180910390a36000805473ffffffffffffffffffffffffffffffffffffffff1916600160a060020a0392909216919091179055565b60005433600160a060020a0390811691161461047657600080fd5b60006002805460ff169081111561048957fe5b1461049357600080fd5b600160a060020a0381166000908152600160205260409020546104bc903463ffffffff6104d816565b600160a060020a03909116600090815260016020526040902055565b6000828201838110156104e757fe5b93925050505600a165627a7a72305820283e27dac6743b78fd73de1830b0a3a5df646d8011e6a0d5a38ed3d7dc4bbe800029",
  "source": "pragma solidity ^0.4.16;\r\n\r\nimport \"./base/math/SafeMath.sol\";\r\nimport \"./base/ownership/Ownable.sol\";\r\n\r\ncontract RefundVaultProvider is Ownable {\r\n    using SafeMath for uint256;\r\n    \r\n\tmapping (address => uint256) public deposited;\r\n\r\n\tenum State { Active, Refunding, Withdraw }\r\n\tState public state;\r\n\r\n\tevent Closed();\r\n    event RefundsEnabled();\r\n    event Refunded(address indexed beneficiary, uint weiAmount);\r\n    \r\n    /**\r\n\t * Constructor function\r\n\t */\r\n    function RefundVaultCommon() {\r\n    \tstate = State.Active;\r\n    }\r\n\r\n    function deposit(address investor) onlyOwner payable {\r\n        require(state == State.Active);\r\n\r\n        deposited[investor] = deposited[investor].add(msg.value);\r\n    }\r\n\r\n    function close() onlyOwner public {\r\n\t\trequire(state == State.Active);\r\n\r\n        state = State.Withdraw;\r\n        Closed();\r\n\t}\r\n\r\n\tfunction enableRefunds() onlyOwner public {\r\n\t\trequire(state == State.Active);\r\n\r\n        state = State.Refunding;\r\n        RefundsEnabled();\r\n\t}\r\n\r\n\tfunction claimRefund(address investor) onlyOwner {\r\n        require(state == State.Refunding);\r\n        uint depositedValue = deposited[investor];\r\n        require(depositedValue > 0);\r\n\r\n        deposited[investor] = 0;\r\n        investor.transfer(depositedValue); // refund investor\r\n        Refunded(investor, depositedValue);\r\n    }\r\n}",
  "sourcePath": "C:\\OpenServer\\domains\\smart_contracts\\sale\\contracts\\RefundVaultProvider.sol",
  "compiler": {
    "name": "solc",
    "version": "0.4.18+commit.9cf6e910.Emscripten.clang"
  },
  "schemaVersion": "1.0.1",
  "updatedAt": "2017-11-14T07:35:08.842Z"
}