{
  "contractName": "RefundableCrowdsale",
  "abi": [
    {
      "constant": true,
      "inputs": [],
      "name": "rate",
      "outputs": [
        {
          "name": "",
          "type": "uint256"
        }
      ],
      "payable": false,
      "stateMutability": "view",
      "type": "function"
    },
    {
      "constant": true,
      "inputs": [],
      "name": "endTime",
      "outputs": [
        {
          "name": "",
          "type": "uint256"
        }
      ],
      "payable": false,
      "stateMutability": "view",
      "type": "function"
    },
    {
      "constant": true,
      "inputs": [],
      "name": "goal",
      "outputs": [
        {
          "name": "",
          "type": "uint256"
        }
      ],
      "payable": false,
      "stateMutability": "view",
      "type": "function"
    },
    {
      "constant": true,
      "inputs": [],
      "name": "weiRaised",
      "outputs": [
        {
          "name": "",
          "type": "uint256"
        }
      ],
      "payable": false,
      "stateMutability": "view",
      "type": "function"
    },
    {
      "constant": true,
      "inputs": [],
      "name": "hasStarted",
      "outputs": [
        {
          "name": "",
          "type": "bool"
        }
      ],
      "payable": false,
      "stateMutability": "view",
      "type": "function"
    },
    {
      "constant": false,
      "inputs": [],
      "name": "finalize",
      "outputs": [],
      "payable": false,
      "stateMutability": "nonpayable",
      "type": "function"
    },
    {
      "constant": true,
      "inputs": [],
      "name": "wallet",
      "outputs": [
        {
          "name": "",
          "type": "address"
        }
      ],
      "payable": false,
      "stateMutability": "view",
      "type": "function"
    },
    {
      "constant": true,
      "inputs": [],
      "name": "startTime",
      "outputs": [
        {
          "name": "",
          "type": "uint256"
        }
      ],
      "payable": false,
      "stateMutability": "view",
      "type": "function"
    },
    {
      "constant": true,
      "inputs": [],
      "name": "goalReached",
      "outputs": [
        {
          "name": "",
          "type": "bool"
        }
      ],
      "payable": false,
      "stateMutability": "view",
      "type": "function"
    },
    {
      "constant": true,
      "inputs": [],
      "name": "isFinalized",
      "outputs": [
        {
          "name": "",
          "type": "bool"
        }
      ],
      "payable": false,
      "stateMutability": "view",
      "type": "function"
    },
    {
      "constant": true,
      "inputs": [],
      "name": "owner",
      "outputs": [
        {
          "name": "",
          "type": "address"
        }
      ],
      "payable": false,
      "stateMutability": "view",
      "type": "function"
    },
    {
      "constant": false,
      "inputs": [],
      "name": "claimRefund",
      "outputs": [],
      "payable": false,
      "stateMutability": "nonpayable",
      "type": "function"
    },
    {
      "constant": true,
      "inputs": [],
      "name": "hasEnded",
      "outputs": [
        {
          "name": "",
          "type": "bool"
        }
      ],
      "payable": false,
      "stateMutability": "view",
      "type": "function"
    },
    {
      "constant": false,
      "inputs": [
        {
          "name": "newOwner",
          "type": "address"
        }
      ],
      "name": "transferOwnership",
      "outputs": [],
      "payable": false,
      "stateMutability": "nonpayable",
      "type": "function"
    },
    {
      "constant": true,
      "inputs": [],
      "name": "hardCap",
      "outputs": [
        {
          "name": "",
          "type": "uint256"
        }
      ],
      "payable": false,
      "stateMutability": "view",
      "type": "function"
    },
    {
      "constant": true,
      "inputs": [],
      "name": "vault",
      "outputs": [
        {
          "name": "",
          "type": "address"
        }
      ],
      "payable": false,
      "stateMutability": "view",
      "type": "function"
    },
    {
      "constant": true,
      "inputs": [],
      "name": "token",
      "outputs": [
        {
          "name": "",
          "type": "address"
        }
      ],
      "payable": false,
      "stateMutability": "view",
      "type": "function"
    },
    {
      "inputs": [
        {
          "name": "_startTime",
          "type": "uint32"
        },
        {
          "name": "_endTime",
          "type": "uint32"
        },
        {
          "name": "_rate",
          "type": "uint256"
        },
        {
          "name": "_hardCap",
          "type": "uint256"
        },
        {
          "name": "_wallet",
          "type": "address"
        },
        {
          "name": "_token",
          "type": "address"
        },
        {
          "name": "_goal",
          "type": "uint256"
        }
      ],
      "payable": false,
      "stateMutability": "nonpayable",
      "type": "constructor"
    },
    {
      "payable": true,
      "stateMutability": "payable",
      "type": "fallback"
    },
    {
      "anonymous": false,
      "inputs": [],
      "name": "Finalized",
      "type": "event"
    },
    {
      "anonymous": false,
      "inputs": [
        {
          "indexed": true,
          "name": "previousOwner",
          "type": "address"
        },
        {
          "indexed": true,
          "name": "newOwner",
          "type": "address"
        }
      ],
      "name": "OwnershipTransferred",
      "type": "event"
    },
    {
      "anonymous": false,
      "inputs": [
        {
          "indexed": true,
          "name": "purchaser",
          "type": "address"
        },
        {
          "indexed": true,
          "name": "beneficiary",
          "type": "address"
        },
        {
          "indexed": false,
          "name": "value",
          "type": "uint256"
        },
        {
          "indexed": false,
          "name": "amount",
          "type": "uint256"
        }
      ],
      "name": "TokenPurchase",
      "type": "event"
    }
  ],
  "bytecode": "0x60606040526007805460a060020a60ff0219169055341561001f57600080fd5b60405160e080611148833981016040528080519190602001805191906020018051919060200180519190602001805191906020018051919060200180519150879050868686868663ffffffff808716908616858585854286101561008257600080fd5b8585101561008f57600080fd5b6000841161009c57600080fd5b600160a060020a03821615156100b157600080fd5b8383116100bd57600080fd5b60008054600160a060020a0319908116600160a060020a039384161782556001979097556002959095556004939093556006919091556003805485169183169190911790556007805490931633909116179091558711955061012494505050505057600080fd5b8261012d610182565b600160a060020a039091168152602001604051809103906000f080151561015357600080fd5b60098054600160a060020a031916600160a060020a039290921691909117905560085550610192945050505050565b60405161060c80610b3c83390190565b61099b806101a16000396000f3006060604052600436106100d75763ffffffff60e060020a6000350416632c4e722e81146100e35780633197cbb614610108578063401938831461011b5780634042b66f1461012e57806344691f7e146101415780634bb278f314610168578063521eb2731461017b57806378e97925146101aa5780637d3d6522146101bd5780638d4e4083146101d05780638da5cb5b146101e3578063b5545a3c146101f6578063ecb70fb714610209578063f2fde38b1461021c578063fb86a4041461023b578063fbfa77cf1461024e578063fc0c546a14610261575b6100e13334610274565b005b34156100ee57600080fd5b6100f66104ab565b60405190815260200160405180910390f35b341561011357600080fd5b6100f66104b1565b341561012657600080fd5b6100f66104b7565b341561013957600080fd5b6100f66104bd565b341561014c57600080fd5b6101546104c3565b604051901515815260200160405180910390f35b341561017357600080fd5b6100e16104cc565b341561018657600080fd5b61018e61056b565b604051600160a060020a03909116815260200160405180910390f35b34156101b557600080fd5b6100f661057a565b34156101c857600080fd5b610154610580565b34156101db57600080fd5b61015461058b565b34156101ee57600080fd5b61018e61059b565b341561020157600080fd5b6100e16105aa565b341561021457600080fd5b61015461063a565b341561022757600080fd5b6100e1600160a060020a03600435166106c7565b341561024657600080fd5b6100f6610762565b341561025957600080fd5b61018e610768565b341561026c57600080fd5b61018e610777565b60008080808080600160a060020a038816151561029057600080fd5b60008054600160a060020a0316906318160ddd90604051602001526040518163ffffffff1660e060020a028152600401602060405180830381600087803b15156102d957600080fd5b6102c65a03f115156102ea57600080fd5b5050506040518051905095506102fe610786565b945061030b87868861078c565b151561031657600080fd5b610326878663ffffffff6107e416565b60065490945060009350610340858863ffffffff61080f16565b111561038857600654610359908763ffffffff61081e16565b915061036b828663ffffffff61083016565b905061037d818663ffffffff6107e416565b935080870392508096505b60055461039b908863ffffffff61080f16565b60055560008054600160a060020a0316906340c10f19908a9087906040516020015260405160e060020a63ffffffff8516028152600160a060020a0390921660048301526024820152604401602060405180830381600087803b151561040057600080fd5b6102c65a03f1151561041157600080fd5b50505060405180515050600160a060020a038816807f623b3804fa71d67900d064613da8f94b9617215ee90799290593e1745087ad18898760405191825260208201526040908101905180910390a3821561049757600160a060020a03331683156108fc0284604051600060405180830381858888f19350505050151561049757600080fd5b6104a18888610847565b5050505050505050565b60045481565b60025481565b60085481565b60055481565b60015442101590565b60075433600160a060020a039081169116146104e757600080fd5b60075460a060020a900460ff16156104fe57600080fd5b61050661063a565b151561051157600080fd5b6105196108b0565b7f6823b073d48d6e3a7d385eeb601452d680e74bb46afe3255a7d778f3a9b1768160405160405180910390a16007805474ff0000000000000000000000000000000000000000191660a060020a179055565b600354600160a060020a031681565b60015481565b600854600554101590565b60075460a060020a900460ff1681565b600754600160a060020a031681565b60075460a060020a900460ff1615156105c257600080fd5b6105ca610580565b156105d457600080fd5b600954600160a060020a031663fa89401a3360405160e060020a63ffffffff8416028152600160a060020a039091166004820152602401600060405180830381600087803b151561062457600080fd5b6102c65a03f1151561063557600080fd5b505050565b60006002544211806106c2575060045460065461065c9163ffffffff61081e16565b60008054600160a060020a0316906318160ddd90604051602001526040518163ffffffff1660e060020a028152600401602060405180830381600087803b15156106a557600080fd5b6102c65a03f115156106b657600080fd5b50505060405180519050115b905090565b60075433600160a060020a039081169116146106e257600080fd5b600160a060020a03811615156106f757600080fd5b600754600160a060020a0380831691167f8be0079c531659141344cd1fd0a4f28419497f9722a3daafe3b4186f6b6457e060405160405180910390a36007805473ffffffffffffffffffffffffffffffffffffffff1916600160a060020a0392909216919091179055565b60065481565b600954600160a060020a031681565b600054600160a060020a031681565b60045490565b60008060008060015442101580156107a657506002544211155b60065490935087151592506107c1908763ffffffff61081e16565b85111590508280156107d05750815b80156107d95750805b979650505050505050565b600082820283158061080057508284828115156107fd57fe5b04145b151561080857fe5b9392505050565b60008282018381101561080857fe5b60008282111561082a57fe5b50900390565b600080828481151561083e57fe5b04949350505050565b600954600160a060020a031663f340fa01828460405160e060020a63ffffffff8516028152600160a060020a0390911660048201526024016000604051808303818588803b151561089757600080fd5b6125ee5a03f115156108a857600080fd5b505050505050565b6108b8610580565b1561091557600954600160a060020a03166343d726d66040518163ffffffff1660e060020a028152600401600060405180830381600087803b15156108fc57600080fd5b6102c65a03f1151561090d57600080fd5b505050610969565b600954600160a060020a0316638c52dc416040518163ffffffff1660e060020a028152600401600060405180830381600087803b151561095457600080fd5b6102c65a03f1151561096557600080fd5b5050505b61096d5b5600a165627a7a72305820c773677e642e33f1c082b13e23046e4b64a9b94cf6a1b5945f2434b5f1201e6b00296060604052341561000f57600080fd5b60405160208061060c8339810160405280805160008054600160a060020a03191633600160a060020a039081169190911790915590925082161515905061005557600080fd5b60028054600160a060020a031916600160a060020a03929092169190911760a060020a60ff021916905561057e8061008e6000396000f3006060604052600436106100985763ffffffff7c010000000000000000000000000000000000000000000000000000000060003504166343d726d6811461009d578063521eb273146100b25780638c52dc41146100e15780638da5cb5b146100f4578063c19d93fb14610107578063cb13cddb1461013e578063f2fde38b1461016f578063f340fa011461018e578063fa89401a146101a2575b600080fd5b34156100a857600080fd5b6100b06101c1565b005b34156100bd57600080fd5b6100c561029c565b604051600160a060020a03909116815260200160405180910390f35b34156100ec57600080fd5b6100b06102ab565b34156100ff57600080fd5b6100c561033c565b341561011257600080fd5b61011a61034b565b6040518082600281111561012a57fe5b60ff16815260200191505060405180910390f35b341561014957600080fd5b61015d600160a060020a036004351661035b565b60405190815260200160405180910390f35b341561017a57600080fd5b6100b0600160a060020a036004351661036d565b6100b0600160a060020a0360043516610408565b34156101ad57600080fd5b6100b0600160a060020a036004351661048c565b60005433600160a060020a039081169116146101dc57600080fd5b60006002805460a060020a900460ff16908111156101f657fe5b1461020057600080fd5b6002805474ff00000000000000000000000000000000000000001916740200000000000000000000000000000000000000001790557f1cdde67b72a90f19919ac732a437ac2f7a10fc128d28c2a6e525d89ce5cd9d3a60405160405180910390a1600254600160a060020a039081169030163180156108fc0290604051600060405180830381858888f19350505050151561029a57600080fd5b565b600254600160a060020a031681565b60005433600160a060020a039081169116146102c657600080fd5b60006002805460a060020a900460ff16908111156102e057fe5b146102ea57600080fd5b6002805474ff0000000000000000000000000000000000000000191660a060020a1790557f599d8e5a83cffb867d051598c4d70e805d59802d8081c1c7d6dffc5b6aca2b8960405160405180910390a1565b600054600160a060020a031681565b60025460a060020a900460ff1681565b60016020526000908152604090205481565b60005433600160a060020a0390811691161461038857600080fd5b600160a060020a038116151561039d57600080fd5b600054600160a060020a0380831691167f8be0079c531659141344cd1fd0a4f28419497f9722a3daafe3b4186f6b6457e060405160405180910390a36000805473ffffffffffffffffffffffffffffffffffffffff1916600160a060020a0392909216919091179055565b60005433600160a060020a0390811691161461042357600080fd5b60006002805460a060020a900460ff169081111561043d57fe5b1461044757600080fd5b600160a060020a038116600090815260016020526040902054610470903463ffffffff61053c16565b600160a060020a03909116600090815260016020526040902055565b600060016002805460a060020a900460ff16908111156104a857fe5b146104b257600080fd5b50600160a060020a038116600081815260016020526040808220805492905590919082156108fc0290839051600060405180830381858888f1935050505015156104fb57600080fd5b81600160a060020a03167fd7dee2702d63ad89917b6a4da9981c90c4d24f8c2bdfd64c604ecae57d8d06518260405190815260200160405180910390a25050565b60008282018381101561054b57fe5b93925050505600a165627a7a72305820c5e19baa94be2d2213cfc939912fb1fc94875b61dbf880ced31512942109f1b20029",
  "source": "pragma solidity ^0.4.11;\r\n\r\nimport '../math/SafeMath.sol';\r\nimport './FinalizableCrowdsale.sol';\r\nimport './RefundVault.sol';\r\n\r\n/**\r\n * @title RefundableCrowdsale\r\n * @dev Extension of Crowdsale contract that adds a funding goal, and\r\n * the possibility of users getting a refund if goal is not met.\r\n * Uses a RefundVault as the crowdsale's vault.\r\n */\r\ncontract RefundableCrowdsale is FinalizableCrowdsale {\r\n    using SafeMath for uint256;\r\n\r\n    // minimum amount of funds to be raised in weis\r\n    uint256 public goal;\r\n\r\n    // refund vault used to hold funds while crowdsale is running\r\n    RefundVault public vault;\r\n\r\n    function RefundableCrowdsale(uint32 _startTime, uint32 _endTime, uint _rate, uint _hardCap, address _wallet, address _token, uint256 _goal)\r\n            FinalizableCrowdsale(_startTime, _endTime, _rate, _hardCap, _wallet, _token) {\r\n        require(_goal > 0);\r\n        vault = new RefundVault(_wallet);\r\n        goal = _goal;\r\n    }\r\n\r\n    // We're overriding the fund forwarding from Crowdsale.\r\n    // In addition to sending the funds, we want to call\r\n    // the RefundVault deposit function\r\n    // function forwardFunds(uint amountWei) internal {\r\n    //     if (goalReached()) {\r\n    //         wallet.transfer(amountWei);\r\n    //     } else {\r\n    //         vault.deposit.value(amountWei)(msg.sender);\r\n    //     }\r\n    // }\r\n    function forwardFunds(address beneficiary, uint amountWei) internal {\r\n        vault.deposit.value(amountWei)(beneficiary);\r\n    }\r\n\r\n    // if crowdsale is unsuccessful, investors can claim refunds here\r\n    function claimRefund() public {\r\n        require(isFinalized);\r\n        require(!goalReached());\r\n\r\n        vault.refund(msg.sender);\r\n    }\r\n\r\n    // vault finalization task, called when owner calls finalize()\r\n    function finalization() internal {\r\n        if (goalReached()) {\r\n            vault.close();\r\n        } else {\r\n            vault.enableRefunds();\r\n        }\r\n\r\n        super.finalization();\r\n    }\r\n\r\n    function goalReached() public constant returns (bool) {\r\n        return weiRaised >= goal;\r\n    }\r\n}",
  "sourcePath": "C:\\OpenServer\\domains\\smart_contracts\\sale\\contracts\\base\\crowdsale\\RefundableCrowdsale.sol",
  "compiler": {
    "name": "solc",
    "version": "0.4.18+commit.9cf6e910.Emscripten.clang"
  },
  "schemaVersion": "1.0.1",
  "updatedAt": "2017-11-04T12:32:10.773Z"
}