{
  "contractName": "TokenHolder",
  "abi": [
    {
      "constant": true,
      "inputs": [],
      "name": "crowdsaleHasEnded",
      "outputs": [
        {
          "name": "",
          "type": "bool"
        }
      ],
      "payable": false,
      "stateMutability": "view",
      "type": "function"
    },
    {
      "constant": false,
      "inputs": [],
      "name": "getDepositedAmount",
      "outputs": [
        {
          "name": "",
          "type": "uint256"
        }
      ],
      "payable": false,
      "stateMutability": "nonpayable",
      "type": "function"
    },
    {
      "constant": false,
      "inputs": [
        {
          "name": "_crowdsale",
          "type": "address"
        }
      ],
      "name": "setCrowdsale",
      "outputs": [],
      "payable": false,
      "stateMutability": "nonpayable",
      "type": "function"
    },
    {
      "constant": true,
      "inputs": [],
      "name": "crowdsaleGoalReached",
      "outputs": [
        {
          "name": "",
          "type": "bool"
        }
      ],
      "payable": false,
      "stateMutability": "view",
      "type": "function"
    },
    {
      "constant": false,
      "inputs": [
        {
          "name": "investor",
          "type": "address"
        }
      ],
      "name": "withdraw",
      "outputs": [],
      "payable": false,
      "stateMutability": "nonpayable",
      "type": "function"
    },
    {
      "constant": true,
      "inputs": [],
      "name": "owner",
      "outputs": [
        {
          "name": "",
          "type": "address"
        }
      ],
      "payable": false,
      "stateMutability": "view",
      "type": "function"
    },
    {
      "constant": true,
      "inputs": [],
      "name": "crowdsale",
      "outputs": [
        {
          "name": "",
          "type": "address"
        }
      ],
      "payable": false,
      "stateMutability": "view",
      "type": "function"
    },
    {
      "constant": false,
      "inputs": [
        {
          "name": "investor",
          "type": "address"
        }
      ],
      "name": "claimRefund",
      "outputs": [],
      "payable": false,
      "stateMutability": "nonpayable",
      "type": "function"
    },
    {
      "constant": true,
      "inputs": [
        {
          "name": "",
          "type": "address"
        }
      ],
      "name": "deposited",
      "outputs": [
        {
          "name": "",
          "type": "uint256"
        }
      ],
      "payable": false,
      "stateMutability": "view",
      "type": "function"
    },
    {
      "constant": true,
      "inputs": [],
      "name": "getCrowdsaleEndTime",
      "outputs": [
        {
          "name": "",
          "type": "uint256"
        }
      ],
      "payable": false,
      "stateMutability": "view",
      "type": "function"
    },
    {
      "constant": true,
      "inputs": [],
      "name": "getCrowdsaleStartTime",
      "outputs": [
        {
          "name": "",
          "type": "uint256"
        }
      ],
      "payable": false,
      "stateMutability": "view",
      "type": "function"
    },
    {
      "constant": false,
      "inputs": [
        {
          "name": "newOwner",
          "type": "address"
        }
      ],
      "name": "transferOwnership",
      "outputs": [],
      "payable": false,
      "stateMutability": "nonpayable",
      "type": "function"
    },
    {
      "constant": false,
      "inputs": [
        {
          "name": "beneficiary",
          "type": "address"
        }
      ],
      "name": "deposit",
      "outputs": [],
      "payable": true,
      "stateMutability": "payable",
      "type": "function"
    },
    {
      "payable": true,
      "stateMutability": "payable",
      "type": "fallback"
    },
    {
      "anonymous": false,
      "inputs": [
        {
          "indexed": true,
          "name": "beneficiary",
          "type": "address"
        },
        {
          "indexed": false,
          "name": "weiAmount",
          "type": "uint256"
        }
      ],
      "name": "Refunded",
      "type": "event"
    },
    {
      "anonymous": false,
      "inputs": [
        {
          "indexed": true,
          "name": "previousOwner",
          "type": "address"
        },
        {
          "indexed": true,
          "name": "newOwner",
          "type": "address"
        }
      ],
      "name": "OwnershipTransferred",
      "type": "event"
    }
  ],
  "bytecode": "0x606060405260008054600160a060020a033316600160a060020a0319909116179055610b1b806100306000396000f3006060604052600436106100ab5763ffffffff60e060020a600035041663213294cd81146100ad578063322ba9f3146100d4578063483a20b2146100f957806350d4a2b91461011857806351cff8d91461012b5780638da5cb5b1461014a5780639c1e03a014610179578063bffa55d51461018c578063cb13cddb146101ab578063d86981f1146101ca578063de771882146101dd578063f2fde38b146101f0578063f340fa011461020f575b005b34156100b857600080fd5b6100c0610223565b604051901515815260200160405180910390f35b34156100df57600080fd5b6100e761028c565b60405190815260200160405180910390f35b341561010457600080fd5b6100ab600160a060020a036004351661036b565b341561012357600080fd5b6100c06103b5565b341561013657600080fd5b6100ab600160a060020a03600435166103ff565b341561015557600080fd5b61015d610613565b604051600160a060020a03909116815260200160405180910390f35b341561018457600080fd5b61015d610622565b341561019757600080fd5b6100ab600160a060020a0360043516610631565b34156101b657600080fd5b6100e7600160a060020a0360043516610908565b34156101d557600080fd5b6100e761091a565b34156101e857600080fd5b6100e7610964565b34156101fb57600080fd5b6100ab600160a060020a03600435166109ae565b6100ab600160a060020a0360043516610a49565b600254600090600160a060020a031663ecb70fb782604051602001526040518163ffffffff1660e060020a028152600401602060405180830381600087803b151561026d57600080fd5b6102c65a03f1151561027e57600080fd5b505050604051805191505090565b6002546000908190600160a060020a031663fbfa77cf82604051602001526040518163ffffffff1660e060020a028152600401602060405180830381600087803b15156102d857600080fd5b6102c65a03f115156102e957600080fd5b5050506040518051915050600160a060020a03811663cb13cddb3060006040516020015260405160e060020a63ffffffff8416028152600160a060020a039091166004820152602401602060405180830381600087803b151561034b57600080fd5b6102c65a03f1151561035c57600080fd5b50505060405180519250505090565b60005433600160a060020a0390811691161461038657600080fd5b6002805473ffffffffffffffffffffffffffffffffffffffff1916600160a060020a0392909216919091179055565b600254600090600160a060020a0316637d3d652282604051602001526040518163ffffffff1660e060020a028152600401602060405180830381600087803b151561026d57600080fd5b60008054819033600160a060020a0390811691161461041d57600080fd5b600254600160a060020a031663ecb70fb76000604051602001526040518163ffffffff1660e060020a028152600401602060405180830381600087803b151561046557600080fd5b6102c65a03f1151561047657600080fd5b5050506040518051905080156104eb5750600254600160a060020a0316637d3d65226000604051602001526040518163ffffffff1660e060020a028152600401602060405180830381600087803b15156104cf57600080fd5b6102c65a03f115156104e057600080fd5b505050604051805190505b15156104f657600080fd5b600160a060020a0383166000908152600160205260408120549250821161051c57600080fd5b600160a060020a038084166000908152600160205260408082208290556002549092169163fc0c546a919051602001526040518163ffffffff1660e060020a028152600401602060405180830381600087803b151561057a57600080fd5b6102c65a03f1151561058b57600080fd5b5050506040518051915050600160a060020a03811663a9059cbb848460006040516020015260405160e060020a63ffffffff8516028152600160a060020a0390921660048301526024820152604401602060405180830381600087803b15156105f357600080fd5b6102c65a03f1151561060457600080fd5b50505060405180515050505050565b600054600160a060020a031681565b600254600160a060020a031681565b60008054819033600160a060020a0390811691161461064f57600080fd5b600254600160a060020a031663ecb70fb76000604051602001526040518163ffffffff1660e060020a028152600401602060405180830381600087803b151561069757600080fd5b6102c65a03f115156106a857600080fd5b50505060405180519050801561071e5750600254600160a060020a0316637d3d65226000604051602001526040518163ffffffff1660e060020a028152600401602060405180830381600087803b151561070157600080fd5b6102c65a03f1151561071257600080fd5b50505060405180519050155b151561072957600080fd5b600160a060020a0383166000908152600160205260408120549250821161074f57600080fd5b600254600160a060020a031663fbfa77cf6000604051602001526040518163ffffffff1660e060020a028152600401602060405180830381600087803b151561079757600080fd5b6102c65a03f115156107a857600080fd5b505050604051805190509050600081600160a060020a031663cb13cddb3060006040516020015260405160e060020a63ffffffff8416028152600160a060020a039091166004820152602401602060405180830381600087803b151561080d57600080fd5b6102c65a03f1151561081e57600080fd5b50505060405180519050111561088257600254600160a060020a031663b5545a3c6040518163ffffffff1660e060020a028152600401600060405180830381600087803b151561086d57600080fd5b6102c65a03f1151561087e57600080fd5b5050505b600160a060020a0383166000818152600160205260408082209190915583156108fc0290849051600060405180830381858888f1935050505015156108c657600080fd5b82600160a060020a03167fd7dee2702d63ad89917b6a4da9981c90c4d24f8c2bdfd64c604ecae57d8d06518360405190815260200160405180910390a2505050565b60016020526000908152604090205481565b600254600090600160a060020a0316633197cbb682604051602001526040518163ffffffff1660e060020a028152600401602060405180830381600087803b151561026d57600080fd5b600254600090600160a060020a03166378e9792582604051602001526040518163ffffffff1660e060020a028152600401602060405180830381600087803b151561026d57600080fd5b60005433600160a060020a039081169116146109c957600080fd5b600160a060020a03811615156109de57600080fd5b600054600160a060020a0380831691167f8be0079c531659141344cd1fd0a4f28419497f9722a3daafe3b4186f6b6457e060405160405180910390a36000805473ffffffffffffffffffffffffffffffffffffffff1916600160a060020a0392909216919091179055565b60005433600160a060020a03908116911614610a6457600080fd5b600254600160a060020a03163460405160006040518083038185876187965a03f1925050501515610a9457600080fd5b600160a060020a038116600090815260016020526040902054610abd903463ffffffff610ad916565b600160a060020a03909116600090815260016020526040902055565b600082820183811015610ae857fe5b93925050505600a165627a7a723058205cd9b5934d6126d84889b1f99afa11f3c3fc9c4009f234e9db522a08199c3f980029",
  "source": "pragma solidity ^0.4.16;\r\n\r\nimport \"./base/ownership/Ownable.sol\";\r\nimport \"./base/math/SafeMath.sol\";\r\nimport \"./base/crowdsale/RefundVault.sol\";\r\nimport \"./base/token/MintableToken.sol\";\r\n\r\nimport \"./CrowdsaleInterface.sol\";\r\n// import \"./RefundVaultProvider.sol\";\r\n\r\n// Second main contract (after cryptosale) is token's holder\r\ncontract TokenHolder is Ownable { //, RefundVaultProvider\r\n\tusing SafeMath for uint256;\r\n\r\n\tevent Refunded(address indexed beneficiary, uint weiAmount);\r\n\r\n\tmapping (address => uint256) public deposited;\r\n\r\n\t// Linked crowdsale contract\r\n\tCrowdsaleInterface public crowdsale;\r\n\r\n\t/**\r\n\t * payable methods\r\n\t */\r\n\r\n\t// Important\r\n\tfunction() payable { }\r\n\r\n\t/**\r\n\t * public methods\r\n\t */\r\n\r\n\t// Check that crowdsale has end\r\n\tfunction crowdsaleHasEnded() public constant returns(bool) {\r\n\t\treturn crowdsale.hasEnded();\r\n\t}\r\n\r\n\t// Check that crowdsale is goal reached\r\n\tfunction crowdsaleGoalReached() public constant returns(bool) {\r\n\t\treturn crowdsale.goalReached();\r\n\t}\r\n\r\n\t// Get start time of crowdsale\r\n\tfunction getCrowdsaleStartTime() public constant returns(uint) {\r\n\t\treturn crowdsale.startTime();\r\n\t}\r\n\t// Get end time of crowdsale\r\n\tfunction getCrowdsaleEndTime() public constant returns(uint) {\r\n\t\treturn crowdsale.endTime();\r\n\t}\r\n\r\n\t/**\r\n\t * only owner methods\r\n\t */\r\n\r\n\t// Main method of buying token from crowdsale\r\n\tfunction deposit(address beneficiary) onlyOwner payable public { //buyTokens\r\n\t\trequire(crowdsale.call.value(msg.value)());\r\n\r\n\t\tdeposited[beneficiary] = deposited[beneficiary].add(msg.value);\r\n\t}\r\n\r\n\t// Setting crowdsale contract. Can execute from cryptosale\r\n\tfunction setCrowdsale(address _crowdsale) onlyOwner public {\r\n\t\tcrowdsale = CrowdsaleInterface(_crowdsale);\r\n\t}\r\n\t\r\n\t// Return funds if softcup is not reached\r\n\tfunction claimRefund(address investor) onlyOwner public {\r\n\t\t// require(state == State.Refunding);\r\n\t\trequire(crowdsale.hasEnded() && !crowdsale.goalReached());\r\n\r\n\t\tuint depositedValue = deposited[investor];\r\n\t\trequire(depositedValue > 0);\r\n\r\n\t\tRefundVault vault = RefundVault(crowdsale.vault());\r\n\t\tif (vault.deposited(this) > 0) {\r\n\t\t\tcrowdsale.claimRefund(); // refund TokenHolder\r\n\t\t}\r\n\t\t// MintableToken token = MintableToken(crowdsale.token());\r\n\t\t// require(token.balanceOf(this) > 0);\r\n\r\n\t\tdeposited[investor] = 0;\r\n        investor.transfer(depositedValue); // refund investor\r\n        Refunded(investor, depositedValue);\r\n\t}\r\n\r\n\t// To give tokens investors\r\n\tfunction withdraw(address investor) onlyOwner public {\r\n\t\t// require(state == State.Withdraw);\r\n\t\trequire(crowdsale.hasEnded() && crowdsale.goalReached());\r\n\t\tuint depositedValue = deposited[investor];\r\n        require(depositedValue > 0);\r\n\r\n        deposited[investor] = 0;\r\n        MintableToken token = MintableToken(crowdsale.token());\r\n        token.transfer(investor, depositedValue);\r\n\t}\r\n\r\n\t/**\r\n\t * optional methods\r\n\t */\r\n\r\n\tfunction getDepositedAmount() public returns(uint) {\r\n\t\tRefundVault vault = RefundVault(crowdsale.vault());\r\n\t\treturn vault.deposited(this);\r\n\t}\r\n}",
  "sourcePath": "C:\\OpenServer\\domains\\smart_contracts\\sale\\contracts\\TokenHolder.sol",
  "compiler": {
    "name": "solc",
    "version": "0.4.18+commit.9cf6e910.Emscripten.clang"
  },
  "schemaVersion": "1.0.1",
  "updatedAt": "2017-11-14T07:35:08.846Z"
}